{
  "_format": "hh-sol-artifact-1",
  "contractName": "FactoryRegistry",
  "sourceName": "contracts/ido/FactoryRegistry.sol",
  "abi": [
    {
      "inputs": [],
      "stateMutability": "nonpayable",
      "type": "constructor"
    },
    {
      "inputs": [
        {
          "internalType": "address",
          "name": "owner",
          "type": "address"
        }
      ],
      "name": "OwnableInvalidOwner",
      "type": "error"
    },
    {
      "inputs": [
        {
          "internalType": "address",
          "name": "account",
          "type": "address"
        }
      ],
      "name": "OwnableUnauthorizedAccount",
      "type": "error"
    },
    {
      "anonymous": false,
      "inputs": [
        {
          "indexed": true,
          "internalType": "address",
          "name": "oldFactory",
          "type": "address"
        },
        {
          "indexed": true,
          "internalType": "address",
          "name": "newFactory",
          "type": "address"
        }
      ],
      "name": "FactoryUpdated",
      "type": "event"
    },
    {
      "anonymous": false,
      "inputs": [
        {
          "indexed": true,
          "internalType": "address",
          "name": "previousOwner",
          "type": "address"
        },
        {
          "indexed": true,
          "internalType": "address",
          "name": "newOwner",
          "type": "address"
        }
      ],
      "name": "OwnershipTransferred",
      "type": "event"
    },
    {
      "anonymous": false,
      "inputs": [
        {
          "indexed": true,
          "internalType": "uint256",
          "name": "saleId",
          "type": "uint256"
        }
      ],
      "name": "SaleDeactivated",
      "type": "event"
    },
    {
      "anonymous": false,
      "inputs": [
        {
          "indexed": true,
          "internalType": "uint256",
          "name": "saleId",
          "type": "uint256"
        },
        {
          "indexed": true,
          "internalType": "address",
          "name": "saleToken",
          "type": "address"
        },
        {
          "indexed": true,
          "internalType": "address",
          "name": "creator",
          "type": "address"
        }
      ],
      "name": "SaleRegistered",
      "type": "event"
    },
    {
      "inputs": [
        {
          "internalType": "uint256",
          "name": "",
          "type": "uint256"
        }
      ],
      "name": "activeSaleIds",
      "outputs": [
        {
          "internalType": "uint256",
          "name": "",
          "type": "uint256"
        }
      ],
      "stateMutability": "view",
      "type": "function"
    },
    {
      "inputs": [
        {
          "internalType": "address",
          "name": "",
          "type": "address"
        },
        {
          "internalType": "uint256",
          "name": "",
          "type": "uint256"
        }
      ],
      "name": "creatorToSales",
      "outputs": [
        {
          "internalType": "uint256",
          "name": "",
          "type": "uint256"
        }
      ],
      "stateMutability": "view",
      "type": "function"
    },
    {
      "inputs": [
        {
          "internalType": "uint256",
          "name": "_saleId",
          "type": "uint256"
        }
      ],
      "name": "deactivateSale",
      "outputs": [],
      "stateMutability": "nonpayable",
      "type": "function"
    },
    {
      "inputs": [],
      "name": "factory",
      "outputs": [
        {
          "internalType": "address",
          "name": "",
          "type": "address"
        }
      ],
      "stateMutability": "view",
      "type": "function"
    },
    {
      "inputs": [],
      "name": "getActiveSales",
      "outputs": [
        {
          "internalType": "uint256[]",
          "name": "",
          "type": "uint256[]"
        }
      ],
      "stateMutability": "view",
      "type": "function"
    },
    {
      "inputs": [
        {
          "internalType": "uint256",
          "name": "_offset",
          "type": "uint256"
        },
        {
          "internalType": "uint256",
          "name": "_limit",
          "type": "uint256"
        }
      ],
      "name": "getAllSales",
      "outputs": [
        {
          "components": [
            {
              "internalType": "uint256",
              "name": "saleId",
              "type": "uint256"
            },
            {
              "internalType": "address",
              "name": "idoSale",
              "type": "address"
            },
            {
              "internalType": "address",
              "name": "saleToken",
              "type": "address"
            },
            {
              "internalType": "address",
              "name": "creator",
              "type": "address"
            },
            {
              "internalType": "uint256",
              "name": "createdAt",
              "type": "uint256"
            },
            {
              "internalType": "bool",
              "name": "active",
              "type": "bool"
            }
          ],
          "internalType": "struct FactoryRegistry.SaleInfo[]",
          "name": "salesPage",
          "type": "tuple[]"
        }
      ],
      "stateMutability": "view",
      "type": "function"
    },
    {
      "inputs": [
        {
          "internalType": "uint256",
          "name": "_saleId",
          "type": "uint256"
        }
      ],
      "name": "getSale",
      "outputs": [
        {
          "components": [
            {
              "internalType": "uint256",
              "name": "saleId",
              "type": "uint256"
            },
            {
              "internalType": "address",
              "name": "idoSale",
              "type": "address"
            },
            {
              "internalType": "address",
              "name": "saleToken",
              "type": "address"
            },
            {
              "internalType": "address",
              "name": "creator",
              "type": "address"
            },
            {
              "internalType": "uint256",
              "name": "createdAt",
              "type": "uint256"
            },
            {
              "internalType": "bool",
              "name": "active",
              "type": "bool"
            }
          ],
          "internalType": "struct FactoryRegistry.SaleInfo",
          "name": "",
          "type": "tuple"
        }
      ],
      "stateMutability": "view",
      "type": "function"
    },
    {
      "inputs": [
        {
          "internalType": "address",
          "name": "_creator",
          "type": "address"
        }
      ],
      "name": "getSalesByCreator",
      "outputs": [
        {
          "internalType": "uint256[]",
          "name": "",
          "type": "uint256[]"
        }
      ],
      "stateMutability": "view",
      "type": "function"
    },
    {
      "inputs": [
        {
          "internalType": "address",
          "name": "_token",
          "type": "address"
        }
      ],
      "name": "getSalesByToken",
      "outputs": [
        {
          "internalType": "uint256[]",
          "name": "",
          "type": "uint256[]"
        }
      ],
      "stateMutability": "view",
      "type": "function"
    },
    {
      "inputs": [
        {
          "internalType": "uint256",
          "name": "_saleId",
          "type": "uint256"
        }
      ],
      "name": "isSaleActive",
      "outputs": [
        {
          "internalType": "bool",
          "name": "",
          "type": "bool"
        }
      ],
      "stateMutability": "view",
      "type": "function"
    },
    {
      "inputs": [],
      "name": "owner",
      "outputs": [
        {
          "internalType": "address",
          "name": "",
          "type": "address"
        }
      ],
      "stateMutability": "view",
      "type": "function"
    },
    {
      "inputs": [
        {
          "internalType": "uint256",
          "name": "_saleId",
          "type": "uint256"
        },
        {
          "internalType": "address",
          "name": "_idoSale",
          "type": "address"
        },
        {
          "internalType": "address",
          "name": "_saleToken",
          "type": "address"
        },
        {
          "internalType": "address",
          "name": "_creator",
          "type": "address"
        }
      ],
      "name": "registerSale",
      "outputs": [],
      "stateMutability": "nonpayable",
      "type": "function"
    },
    {
      "inputs": [],
      "name": "renounceOwnership",
      "outputs": [],
      "stateMutability": "nonpayable",
      "type": "function"
    },
    {
      "inputs": [],
      "name": "saleCount",
      "outputs": [
        {
          "internalType": "uint256",
          "name": "",
          "type": "uint256"
        }
      ],
      "stateMutability": "view",
      "type": "function"
    },
    {
      "inputs": [
        {
          "internalType": "uint256",
          "name": "",
          "type": "uint256"
        }
      ],
      "name": "sales",
      "outputs": [
        {
          "internalType": "uint256",
          "name": "saleId",
          "type": "uint256"
        },
        {
          "internalType": "address",
          "name": "idoSale",
          "type": "address"
        },
        {
          "internalType": "address",
          "name": "saleToken",
          "type": "address"
        },
        {
          "internalType": "address",
          "name": "creator",
          "type": "address"
        },
        {
          "internalType": "uint256",
          "name": "createdAt",
          "type": "uint256"
        },
        {
          "internalType": "bool",
          "name": "active",
          "type": "bool"
        }
      ],
      "stateMutability": "view",
      "type": "function"
    },
    {
      "inputs": [
        {
          "internalType": "address",
          "name": "_factory",
          "type": "address"
        }
      ],
      "name": "setFactory",
      "outputs": [],
      "stateMutability": "nonpayable",
      "type": "function"
    },
    {
      "inputs": [
        {
          "internalType": "address",
          "name": "",
          "type": "address"
        },
        {
          "internalType": "uint256",
          "name": "",
          "type": "uint256"
        }
      ],
      "name": "tokenToSales",
      "outputs": [
        {
          "internalType": "uint256",
          "name": "",
          "type": "uint256"
        }
      ],
      "stateMutability": "view",
      "type": "function"
    },
    {
      "inputs": [
        {
          "internalType": "address",
          "name": "newOwner",
          "type": "address"
        }
      ],
      "name": "transferOwnership",
      "outputs": [],
      "stateMutability": "nonpayable",
      "type": "function"
    }
  ],
  "bytecode": "0x6080806040523461007a5733156100645760008054336001600160a01b03198216811783556040519290916001600160a01b0316907f8be0079c531659141344cd1fd0a4f28419497f9722a3daafe3b4186f6b6457e09080a3610daf90816100808239f35b631e4fbdf760e01b815260006004820152602490fd5b600080fdfe6040608081526004908136101561001557600080fd5b600091823560e01c8063285f123914610aff5780632a75f09b1461092c578063436141d2146108b35780635bb4780814610848578063715018a6146108005780638abeaf7f146107865780638da5cb5b1461075e5780639e75cf45146105d3578063a1e89aec146105b4578063b5f522f714610546578063bb95082f146104fd578063c45a0155146104d4578063ca77b85e146102f5578063ce9d53bd1461026f578063d8f6d596146101e5578063d923a44c146101bb578063e9baadef1461015e5763f2fde38b146100e757600080fd5b3461015a57602036600319011261015a57610100610b28565b90610109610d2d565b6001600160a01b0391821692831561014457505082546001600160a01b031981168317845516600080516020610d5a8339815191528380a380f35b51631e4fbdf760e01b8152908101849052602490fd5b8280fd5b5050346101b757806003193601126101b757610178610b28565b6001600160a01b031682526005602052808220805460243593908410156101b457506020926101a691610bf5565b91905490519160031b1c8152f35b80fd5b5080fd5b503461015a57602036600319011261015a5735916006548310156101b457506101a6602092610bc4565b50903461015a57602036600319011261015a578060ff600561026d9360c09661020c610ce7565b508635815260026020522083519561022387610c34565b8154875260018201546001600160a01b039081166020890152600283015481168689015260038301541660608801528101546080870152015416151560a084015251918290610b7f565bf35b5050346101b757602090602060031936011261015a576001600160a01b03610295610b28565b168352600560205280832092815180936020865492838152019583526020832092905b8282106102de576102da86866102d0828b0383610c65565b5191829182610b43565b0390f35b8354875295860195600193840193909101906102b8565b508290346101b75760203660031901126101b7576001805482359290336001600160a01b03918216149081156104c7575b501561049557828452600260205260ff60058686200154161561045f578284526002602052848420600501805460ff19169055839190815b61038d575b5050507f719372954604b95bbbc886625629812b097cd9f735b9a1cf51e635a285d08bda8280a280f35b836006805480861015610457576103a386610bc4565b939054600394851b1c146103be57505050818093019261035e565b9194909350600019929183810190811161044457906103ee6103e261040793610bc4565b905490881b1c91610bc4565b90919082549060031b91821b91600019901b1916179055565b8254908115610431575081019261041d84610bc4565b81939154921b1b1916905555828080610363565b634e487b7160e01b875260319052602486fd5b634e487b7160e01b885260118352602488fd5b505050610363565b606490602086519162461bcd60e51b8352820152601060248201526f416c726561647920696e61637469766560801b6044820152fd5b606490602086519162461bcd60e51b8352820152600c60248201526b155b985d5d1a1bdc9a5e995960a21b6044820152fd5b9050845416331486610326565b5050346101b757816003193601126101b75760015490516001600160a01b039091168152602090f35b5091346101b457816003193601126101b457610517610b28565b6001600160a01b03168152602092909252808220805460243593908410156101b457506020926101a691610bf5565b50903461015a57602036600319011261015a578060c0938335815260026020522080549260018060a01b03806001840154169360ff600583600287015416936003870154169486015495015416948151968752602087015285015260608401526080830152151560a0820152f35b5050346101b757816003193601126101b7576020906003549051908152f35b509190346101b757806003193601126101b75782356105f460243582610cad565b600394600354808311610756575b508282039182116107435761061b829694939596610cd0565b9361062884519586610c65565b82855261063483610cd0565b60209690601f1901885b818110610724575050875b84811061069b5750505050508051928080850192818652845180945285019301945b8281106106785784840385f35b9091928260c08261068c6001948a51610b7f565b0196019101949291909461066b565b806106ad600192849b9a98999b610cad565b8952600280885260ff60058a8c208b51936106c785610c34565b81548552868060a01b0380918d828a8601541690880152830154168d86015288820154166060850152888101546080850152015416151560a082015261070d828c610d19565b52610718818b610d19565b50019795949697610649565b978096979998610732610ce7565b82828d01015201989695979861063e565b634e487b7160e01b855260119052602484fd5b915038610602565b5050346101b757816003193601126101b757905490516001600160a01b039091168152602090f35b50903461015a5760209160206003193601126107fc576001600160a01b036107ac610b28565b16845260205280832092815180936020865492838152019583526020832092905b8282106107e5576102da86866102d0828b0383610c65565b8354875295860195600193840193909101906107cd565b8380fd5b83346101b457806003193601126101b457610819610d2d565b80546001600160a01b03198116825581906001600160a01b0316600080516020610d5a8339815191528280a380f35b83346101b45760203660031901126101b457610862610b28565b61086a610d2d565b600180546001600160a01b039283166001600160a01b0319821681179092559091167f333c7678baf16017cf31e1d2f90143a62aab01a67a0807f6836a4304ceabb5558380a380f35b8284346101b457806003193601126101b45781516006805480835290835260208083019492937ff652222313e28459528d920b65115c16c04f3efc82aaedc97be59f3f377c0d3f92915b828210610915576102da86866102d0828b0383610c65565b8354875295860195600193840193909101906108fd565b50903461015a57608036600319011261015a576024356001600160a01b03818116939092813592859003610afb5760443593808516809503610af75760643595818716809703610af35781600154163303610ac157918760058693610a3d9584519161099783610c34565b86835260208301918252858301918b835260608401918d835260808501934285528860a087019860018a528b81526002602052209551865581600187019351169260018060a01b0319938482541617905581600287019151168382541617905560038501925116908254161790555187820155019051151560ff8019835416911617905585885283602052610a2e82828a20610c88565b86885260056020528720610c88565b600654600160401b811015610aae57826103ee826001610a609401600655610bc4565b600354906000198214610a9b57506001016003557f930bd23a1c2840f50b6c52abc7e042b03b12ac5cd3eb82f8557fed8a60ffd93e8480a480f35b634e487b7160e01b865260119052602485fd5b634e487b7160e01b865260418252602486fd5b825162461bcd60e51b8152602081860152600c60248201526b4f6e6c7920666163746f727960a01b6044820152606490fd5b8780fd5b8680fd5b8580fd5b5091346101b45760203660031901126101b45750610b1f60209235610c0d565b90519015158152f35b600435906001600160a01b0382168203610b3e57565b600080fd5b602090602060408183019282815285518094520193019160005b828110610b6b575050505090565b835185529381019392810192600101610b5d565b60a08091805184526020810151600180841b03809116602086015280604083015116604086015260608201511660608501526080810151608085015201511515910152565b600654811015610bdf57600660005260206000200190600090565b634e487b7160e01b600052603260045260246000fd5b8054821015610bdf5760005260206000200190600090565b600354811015610c2e57600052600260205260ff6005604060002001541690565b50600090565b60c081019081106001600160401b03821117610c4f57604052565b634e487b7160e01b600052604160045260246000fd5b601f909101601f19168101906001600160401b03821190821017610c4f57604052565b80549190600160401b831015610c4f57826103ee916001610cab95018155610bf5565b565b91908201809211610cba57565b634e487b7160e01b600052601160045260246000fd5b6001600160401b038111610c4f5760051b60200190565b60405190610cf482610c34565b8160a06000918281528260208201528260408201528260608201528260808201520152565b8051821015610bdf5760209160051b010190565b6000546001600160a01b03163303610d4157565b60405163118cdaa760e01b8152336004820152602490fdfe8be0079c531659141344cd1fd0a4f28419497f9722a3daafe3b4186f6b6457e0a2646970667358221220e0aa40a150be4157880fa2e5eeb13f1656d28babf0d0eb37420d7107c3fe291764736f6c63430008160033",
  "linkReferences": {},
  "deployedLinkReferences": {}
}