{
  "_format": "hh-sol-artifact-1",
  "contractName": "IDOFactory",
  "sourceName": "contracts/ido/IDOFactory.sol",
  "abi": [
    {
      "inputs": [
        {
          "internalType": "address",
          "name": "_usdcToken",
          "type": "address"
        },
        {
          "internalType": "address",
          "name": "_registry",
          "type": "address"
        }
      ],
      "stateMutability": "nonpayable",
      "type": "constructor"
    },
    {
      "inputs": [],
      "name": "InvalidAddress",
      "type": "error"
    },
    {
      "inputs": [],
      "name": "InvalidFee",
      "type": "error"
    },
    {
      "inputs": [],
      "name": "InvalidSaleId",
      "type": "error"
    },
    {
      "inputs": [],
      "name": "InvalidToken",
      "type": "error"
    },
    {
      "inputs": [
        {
          "internalType": "address",
          "name": "owner",
          "type": "address"
        }
      ],
      "name": "OwnableInvalidOwner",
      "type": "error"
    },
    {
      "inputs": [
        {
          "internalType": "address",
          "name": "account",
          "type": "address"
        }
      ],
      "name": "OwnableUnauthorizedAccount",
      "type": "error"
    },
    {
      "inputs": [],
      "name": "ReentrancyGuardReentrantCall",
      "type": "error"
    },
    {
      "inputs": [],
      "name": "Unauthorized",
      "type": "error"
    },
    {
      "anonymous": false,
      "inputs": [
        {
          "indexed": false,
          "internalType": "address",
          "name": "oldCollector",
          "type": "address"
        },
        {
          "indexed": false,
          "internalType": "address",
          "name": "newCollector",
          "type": "address"
        }
      ],
      "name": "FeeCollectorUpdated",
      "type": "event"
    },
    {
      "anonymous": false,
      "inputs": [
        {
          "indexed": true,
          "internalType": "address",
          "name": "previousOwner",
          "type": "address"
        },
        {
          "indexed": true,
          "internalType": "address",
          "name": "newOwner",
          "type": "address"
        }
      ],
      "name": "OwnershipTransferred",
      "type": "event"
    },
    {
      "anonymous": false,
      "inputs": [
        {
          "indexed": false,
          "internalType": "uint256",
          "name": "oldFee",
          "type": "uint256"
        },
        {
          "indexed": false,
          "internalType": "uint256",
          "name": "newFee",
          "type": "uint256"
        }
      ],
      "name": "PlatformFeeUpdated",
      "type": "event"
    },
    {
      "anonymous": false,
      "inputs": [
        {
          "indexed": true,
          "internalType": "uint256",
          "name": "saleId",
          "type": "uint256"
        },
        {
          "indexed": true,
          "internalType": "address",
          "name": "saleToken",
          "type": "address"
        },
        {
          "indexed": false,
          "internalType": "address",
          "name": "idoSale",
          "type": "address"
        },
        {
          "indexed": false,
          "internalType": "address",
          "name": "vestingManager",
          "type": "address"
        },
        {
          "indexed": false,
          "internalType": "address",
          "name": "whitelistManager",
          "type": "address"
        },
        {
          "indexed": true,
          "internalType": "address",
          "name": "creator",
          "type": "address"
        }
      ],
      "name": "SaleCreated",
      "type": "event"
    },
    {
      "inputs": [
        {
          "internalType": "address",
          "name": "_saleToken",
          "type": "address"
        },
        {
          "components": [
            {
              "internalType": "string",
              "name": "name",
              "type": "string"
            },
            {
              "internalType": "string",
              "name": "symbol",
              "type": "string"
            },
            {
              "internalType": "string",
              "name": "description",
              "type": "string"
            },
            {
              "internalType": "string",
              "name": "logoUrl",
              "type": "string"
            },
            {
              "internalType": "string",
              "name": "websiteUrl",
              "type": "string"
            },
            {
              "internalType": "string",
              "name": "twitterUrl",
              "type": "string"
            },
            {
              "internalType": "string",
              "name": "telegramUrl",
              "type": "string"
            }
          ],
          "internalType": "struct IDOFactory.SaleMetadata",
          "name": "_metadata",
          "type": "tuple"
        }
      ],
      "name": "createSale",
      "outputs": [
        {
          "internalType": "uint256",
          "name": "saleId",
          "type": "uint256"
        }
      ],
      "stateMutability": "nonpayable",
      "type": "function"
    },
    {
      "inputs": [],
      "name": "feeCollector",
      "outputs": [
        {
          "internalType": "address",
          "name": "",
          "type": "address"
        }
      ],
      "stateMutability": "view",
      "type": "function"
    },
    {
      "inputs": [],
      "name": "owner",
      "outputs": [
        {
          "internalType": "address",
          "name": "",
          "type": "address"
        }
      ],
      "stateMutability": "view",
      "type": "function"
    },
    {
      "inputs": [],
      "name": "platformFeeBps",
      "outputs": [
        {
          "internalType": "uint256",
          "name": "",
          "type": "uint256"
        }
      ],
      "stateMutability": "view",
      "type": "function"
    },
    {
      "inputs": [],
      "name": "registry",
      "outputs": [
        {
          "internalType": "contract FactoryRegistry",
          "name": "",
          "type": "address"
        }
      ],
      "stateMutability": "view",
      "type": "function"
    },
    {
      "inputs": [],
      "name": "renounceOwnership",
      "outputs": [],
      "stateMutability": "nonpayable",
      "type": "function"
    },
    {
      "inputs": [],
      "name": "saleCount",
      "outputs": [
        {
          "internalType": "uint256",
          "name": "",
          "type": "uint256"
        }
      ],
      "stateMutability": "view",
      "type": "function"
    },
    {
      "inputs": [
        {
          "internalType": "address",
          "name": "_feeCollector",
          "type": "address"
        }
      ],
      "name": "setFeeCollector",
      "outputs": [],
      "stateMutability": "nonpayable",
      "type": "function"
    },
    {
      "inputs": [
        {
          "internalType": "uint256",
          "name": "_feeBps",
          "type": "uint256"
        }
      ],
      "name": "setPlatformFee",
      "outputs": [],
      "stateMutability": "nonpayable",
      "type": "function"
    },
    {
      "inputs": [
        {
          "internalType": "address",
          "name": "_registry",
          "type": "address"
        }
      ],
      "name": "setRegistry",
      "outputs": [],
      "stateMutability": "nonpayable",
      "type": "function"
    },
    {
      "inputs": [
        {
          "internalType": "address",
          "name": "newOwner",
          "type": "address"
        }
      ],
      "name": "transferOwnership",
      "outputs": [],
      "stateMutability": "nonpayable",
      "type": "function"
    },
    {
      "inputs": [],
      "name": "usdcToken",
      "outputs": [
        {
          "internalType": "address",
          "name": "",
          "type": "address"
        }
      ],
      "stateMutability": "view",
      "type": "function"
    }
  ],
  "bytecode": "0x60a03461019357614dd490601f38839003908101601f19168201906001600160401b03821183831017610198578083916040958694855283398101031261019357610055602061004e836101ae565b92016101ae565b90331561017b57600080546001600160a01b0319808216339081178455865191956001600160a01b039490938516907f8be0079c531659141344cd1fd0a4f28419497f9722a3daafe3b4186f6b6457e09080a36001805560fa600455828416156101395750169081156100f5576080528160035416176003553390600554161760055551614c1190816101c3823960805181818161047501526108b40152f35b835162461bcd60e51b815260206004820152601860248201527f496e76616c6964207265676973747279206164647265737300000000000000006044820152606490fd5b62461bcd60e51b815260206004820152601460248201527f496e76616c6964205553444320616464726573730000000000000000000000006044820152606490fd5b8251631e4fbdf760e01b815260006004820152602490fd5b600080fd5b634e487b7160e01b600052604160045260246000fd5b51906001600160a01b03821682036101935756fe608060408181526004803610156200001657600080fd5b600092833560e01c90816311eac855146200089e5750806312e8e2c3146200082e57806322dcd13e146200080f5780633e87cf9d1462000346578063715018a614620002f65780637b10399914620002cb5780638da5cb5b14620002a1578063a1e89aec1462000280578063a42dce8014620001ec578063a91ee0dc1462000164578063c415b95c14620001355763f2fde38b14620000b457600080fd5b34620001315760203660031901126200013157620000d1620008e3565b90620000dc62000987565b6001600160a01b039182169283156200011b5750506000548260018060a01b03198216176000551660008051602062004bbc833981519152600080a380f35b51631e4fbdf760e01b8152908101849052602490fd5b8280fd5b505034620001605781600319360112620001605760055490516001600160a01b039091168152602090f35b5080fd5b503462000131576020366003190112620001315762000182620008e3565b6200018c62000987565b6001600160a01b0316918215620001b6575050600380546001600160a01b03191691909117905580f35b906020606492519162461bcd60e51b8352820152601060248201526f496e76616c696420726567697374727960801b6044820152fd5b509190346200016057602036600319011262000160576200020c620008e3565b6200021662000987565b6001600160a01b0390811680156200027057600580546001600160a01b03198116831790915583519216825260208201529192507f5d16ad41baeb009cd23eb8f6c7cde5c2e0cd5acf4a33926ab488875c37c37f3891a180f35b825163e6c4247b60e01b81528590fd5b50503462000160578160031936011262000160576020906002549051908152f35b5050346200016057816003193601126200016057905490516001600160a01b039091168152602090f35b505034620001605781600319360112620001605760035490516001600160a01b039091168152602090f35b833462000343578060031936011262000343576200031362000987565b600080546001600160a01b0319811682556001600160a01b031660008051602062004bbc8339815191528280a380f35b80fd5b5090346200013157600319918183360112620006e05762000366620008e3565b926001600160401b0391602480359290918484116200080b5760e08482019285360301126200080b57600260015414620007fd5760026001556001600160a01b03878116949092908515620007c657620003c18280620008ff565b90501562000794579084620003d8920190620008ff565b90501562000760576002549660001988146200074e5760018801600255865161134380820190828210898311176200073c57602091839162002c6683398881520301908af092831562000732578751610c13808201908282108a831117620007205790829162003fa9833903908bf096871562000716578851906122b18083019182118383101762000720578b8584936200049d93620009b586397f000000000000000000000000000000000000000000000000000000000000000092309162000934565b03908bf0938415620007165781809116941696843b156200071257885160016234e5f560e21b031981528481018990528b818881838a5af180156200070857620006ee575b50908a9291883b15620006e0578951637499156960e01b815285810187905284818981838e5af18015620006e457908591620006c8575b5054821690863b156200069d578a5163f2fde38b60e01b928382528782015285818a81838c5af18015620006a1578492918791620006ab575b5050169682855416883b1562000681578b51908382528782015285818381838d5af18015620006a15790869162000685575b50548316918a3b15620006815785918c5193849283528883015281838d5af1801562000677579084916200065f575b505060035416803b15620001315787838b620005e58c5197889687958694632a75f09b60e01b86523393860162000934565b03925af18015620006555762000639575b506020965084519384528684015283830152837f1fff6436feea9e3e76bf6d45e1bff03d04ab7324eac6ce9ee9a85966bd49714460603394a46001805551908152f35b6200064588916200095d565b620006515786620005f6565b8680fd5b86513d8a823e3d90fd5b6200066a906200095d565b62000131578238620005b3565b8a513d86823e3d90fd5b8580fd5b62000690906200095d565b6200069d57843862000584565b8480fd5b8c513d88823e3d90fd5b620006b9919293506200095d565b6200069d578290853862000552565b620006d3906200095d565b620006e057833862000519565b8380fd5b8b513d87823e3d90fd5b620006fe909b9193929b6200095d565b99909138620004e2565b8a513d8e823e3d90fd5b8a80fd5b88513d8c823e3d90fd5b634e487b7160e01b8d5260418652878dfd5b87513d8b823e3d90fd5b634e487b7160e01b8c5260418552868cfd5b634e487b7160e01b8952601182528389fd5b606490600f84602089519362461bcd60e51b85528401528201526e14de5b589bdb081c995c5d5a5c9959608a1b6044820152fd5b875162461bcd60e51b8152602081850152600d818701526c13985b59481c995c5d5a5c9959609a1b6044820152606490fd5b875162461bcd60e51b81526020818501526012818701527124b73b30b634b21039b0b632903a37b5b2b760711b6044820152606490fd5b8551633ee5aeb560e01b8152fd5b8780fd5b5034620001315782600319360112620001315760209250549051908152f35b503462000131576020366003190112620001315780356200084e62000987565b6103e881116200088f5790817fd347e206f25a89b917fc9482f1a2d294d749baa4dc9bde7fb495ee11fe49164393928254925582519182526020820152a180f35b5090516358d620b360e01b8152fd5b84903462000160578160031936011262000160577f00000000000000000000000000000000000000000000000000000000000000006001600160a01b03168152602090f35b600435906001600160a01b0382168203620008fa57565b600080fd5b903590601e1981360301821215620008fa57018035906001600160401b038211620008fa57602001918136038313620008fa57565b9081526001600160a01b0391821660208201529181166040830152909116606082015260800190565b6001600160401b0381116200097157604052565b634e487b7160e01b600052604160045260246000fd5b6000546001600160a01b031633036200099c57565b60405163118cdaa760e01b8152336004820152602490fdfe60c0346200023557601f620022b138819003918201601f191683019291906001600160401b038411838510176200023a57816080928492604096875283398101031262000235578051620000566020830162000250565b916200007260606200006a86840162000250565b920162000250565b9233156200021d57600080546001600160a01b031980821633908117845588516001600160a01b039892979492939092908916907f8be0079c531659141344cd1fd0a4f28419497f9722a3daafe3b4186f6b6457e09080a360018055600a601255600f6016556276a7006017556301e1338060185586851615620001db575085169485156200019757821615620001535760805260a05260025490610100600160a81b039060081b1690610100600160a81b0319161760025560035416176003555161204b9081620002668239608051816105c7015260a051816105ff0152f35b855162461bcd60e51b815260206004820152601760248201527f496e76616c696420666163746f727920616464726573730000000000000000006044820152606490fd5b865162461bcd60e51b815260206004820152601460248201527f496e76616c6964205553444320616464726573730000000000000000000000006044820152606490fd5b62461bcd60e51b815260206004820152601a60248201527f496e76616c69642073616c6520746f6b656e20616464726573730000000000006044820152606490fd5b8451631e4fbdf760e01b815260006004820152602490fd5b600080fd5b634e487b7160e01b600052604160045260246000fd5b51906001600160a01b0382168203620002355756fe604060808152600480361015610054575b361561001b57600080fd5b6020606492519162461bcd60e51b835282015260146024820152730aae6ca40c4eaf2a8ded6cadce6aed2e8d08aa8960631b6044820152fd5b600060e08135811c9081630add8306146117fe5781630bd73dbb146114bb57816311eac855146114925781631514617e146114735781631ae82b02146112ae5781632b2f4d84146111ed5781633f4ba83a1461118257816342e94c90146111065781634c4a386f146110df578163564566a81461107357816358a687ec14610f465781635c975abb14610f225781635e6f604514610ef957816363b2011714610eda578163715018a614610e925781637499156914610de15781638456cb5914610d865781638da5cb5b14610d5e57816390aa0b0f14610d0f578163997f507014610b3d5781639a037aa014610ada5781639b57002f14610abb5781639b8c1fed146109ed5781639f550293146109c2578163a26dbf26146109a3578163a5f0dea21461097f578163aa98e0c614610960578163b5545a3c14610834578163bb8b2b471461076e578163bd32fb661461071f578163c022c52314610666578163c07b528a1461062e578163c45a0155146105ea578163c84c0387146105af578163d1d799741461053a57508063db2e21bc1461039a578063db74559b14610362578063e9715de914610343578063e985e36714610316578063f02cbb95146102f7578063f2fde38b1461027d578063f3640e741461025e5763f71e4bef1461023c5750610010565b823461025a578160031936011261025a57602090600d549051908152f35b5080fd5b50823461025a578160031936011261025a576020906017549051908152f35b509190346102f35760203660031901126102f357610299611b04565b906102a2611da1565b6001600160a01b039182169283156102dd57505082546001600160a01b031981168317845516600080516020611fd68339815191528380a380f35b51631e4fbdf760e01b8152908101849052602490fd5b8280fd5b50823461025a578160031936011261025a57602090600e549051908152f35b50823461025a578160031936011261025a57600254905160089190911c6001600160a01b03168152602090f35b50823461025a578160031936011261025a576020906012549051908152f35b50823461025a57602036600319011261025a5760209181906001600160a01b0361038a611b04565b1681526013845220549051908152f35b50809183346105365782600319360112610536576103b6611da1565b479160018060a01b039283600354169280519586926370a0823160e01b95868552308686015284602460209687935afa9586156104f95787988397610503575b50849060246002549186519a8b9384928352308b84015260081c165afa9687156104f95782976104ca575b5080610472575b505050505080610459575b508061043d578280f35b816104539260025460081c169084541690611dcd565b81808280f35b61046c9083600354168486541690611dcd565b83610433565b818080928a8254165af1610484611c03565b5015610491578681610428565b5162461bcd60e51b8152918201526015602482015274115512081dda5d1a191c985dd85b0819985a5b1959605a1b604482015260649150fd5b9096508381813d83116104f2575b6104e28183611bbc565b8101031261025a57519589610421565b503d6104d8565b83513d84823e3d90fd5b975095508387813d811161052f575b61051c8183611bbc565b8101031261025a578388975196906103f6565b503d610512565b5050fd5b848484346105ac5760203660031901126105ac57829060ff61055a611abf565b168152600b6020522060ff815416926001820154926002830154600384015491840154926006600586015495015495815197885260208801528601526060850152608084015260a083015260c0820152f35b80fd5b82853461025a578160031936011261025a57602090517f00000000000000000000000000000000000000000000000000000000000000008152f35b82853461025a578160031936011261025a57517f00000000000000000000000000000000000000000000000000000000000000006001600160a01b03168152602090f35b82853461025a57602036600319011261025a5760209181906001600160a01b03610656611b04565b1681526014845220549051908152f35b838584346105ac5760203660031901126105ac57819060ff610686611abf565b61068e611c42565b50168152600b602052208151916106a483611b70565b60ff8254169384845260018301549160208501928352600284015481860190815260038501549260608701938452850154936080870194855260c0600660058801549760a08a0198895201549701968752825197885251602088015251908601525160608501525160808401525160a08301525160c0820152f35b828585346102f35760203660031901126102f3577f136c0469109f45a2bf2f764309926b484a507d7645843502b6a6a68b2e5dc0eb916020913590610762611da1565b8160155551908152a180f35b838584346105ac5760203660031901126105ac579060ff918161078f611b04565b91610798611c42565b506001600160a01b039283168152600c602052208251906107b882611b70565b80549586835260018201549460208401958652600283015481850190815260056003850154936060870194855285015494608087019586520154968860c060a0880197898b168952019860a01c1688528251998a525160208a01525190880152516060870152516080860152511660a0840152511660c0820152f35b505091346102f357826003193601126102f35761084f611c7a565b60ff60115460081c161561095357338352600c60205280832080549283158080610947575b61093857856002600185019482865496818355550155156108ec575b5090817f17c1d890f3ffba4991a771a0b55802a1eff3159d0cce950fb68d1360530393d9926108ce575b815193845260208401523392a26001805580f35b6003546108e790829033906001600160a01b0316611dcd565b6108ba565b8480808087335af16108fc611c03565b5061089057606490602084519162461bcd60e51b83528201526011602482015270115512081c99599d5b990819985a5b1959607a1b6044820152fd5b508251632fc532ad60e11b8152fd5b50600183015415610874565b51630b4d698160e01b8152fd5b82853461025a578160031936011261025a576020906015549051908152f35b82853461025a578160031936011261025a5760209060ff6011541690519015158152f35b82853461025a578160031936011261025a576020906010549051908152f35b82853461025a578160031936011261025a576020906109e6600d54600e5490611b63565b9051908152f35b505091346102f357826003193601126102f357610a08611c7a565b60ff6011541615610aae57338352600c6020528083206002810154908115610a9f57600301928354610a915750610a4460649160165490611b1a565b04809255610a60823360018060a01b0360025460081c16611dcd565b519081527f9d9f91c7e63ecab055ab1ecb358d2e74e46aa0e4c65f9594aa73e56cfb5d0a4760203392a26001805580f35b8251630c8d9eab60e31b8152fd5b505051632fc532ad60e11b8152fd5b51639d98b04b60e01b8152fd5b82853461025a578160031936011261025a576020906016549051908152f35b828585346102f35760203660031901126102f357803591610af9611da1565b60148311610b0957505060125580f35b906020606492519162461bcd60e51b8352820152600e60248201526d084dedceae640e8dede40d0d2ced60931b6044820152fd5b84939150346102f35736600319011261025a57803560243591604435606435906084359260a43560c43591610b70611da1565b42871115610cd05786881115610c8e578315610c555785851115610c125791899187610c0c979695948360c07f3cb0b5e98cb9dd20183a31e5d2074cc10ce67c7c94540b76b44a32d526b9a7099d9e51610bc981611b70565b8481528d602082015288888201528960608201528a60808201528560a082015201525588600555836006558460075585600855600955600a555195869586611bdf565b0390a180f35b60649060208b519162461bcd60e51b8352820152601d60248201527f4861726420636170206d7573742065786365656420736f6674206361700000006044820152fd5b60649060208b519162461bcd60e51b83528201526013602482015272496e76616c696420746f6b656e20707269636560681b6044820152fd5b60649060208b519162461bcd60e51b8352820152601c60248201527b115b99081d1a5b59481b5d5cdd0818994818599d195c881cdd185c9d60221b6044820152fd5b60649060208b519162461bcd60e51b8352820152601960248201527853746172742074696d65206d7573742062652066757475726560381b6044820152fd5b848484346105ac57806003193601126105ac57505490600554906006546007546008549160095493600a5495815197885260208801528601526060850152608084015260a083015260c0820152f35b82853461025a578160031936011261025a57905490516001600160a01b039091168152602090f35b82853461025a578160031936011261025a5760207f62e78cea01bee320cd4e420270b5ea74000d11b0c9f74754ebdbfc544b05a25891610dc4611da1565b610dcc611c9d565b600160ff19600254161760025551338152a180f35b505091346102f35760203660031901126102f357610dfd611b04565b610e05611da1565b6001600160a01b0316918215610e555750601980546001600160a01b03191683179055519081527f5cc1ef5240bc2eaf2d8700ad762816942f83c3049659585c4e09280eeaeacea890602090a180f35b6020606492519162461bcd60e51b83528201526018602482015277125b9d985b1a59081d995cdd1a5b99c818dbdb9d1c9858dd60421b6044820152fd5b82346105ac57806003193601126105ac57610eab611da1565b80546001600160a01b03198116825581906001600160a01b0316600080516020611fd68339815191528280a380f35b82853461025a578160031936011261025a57602090600f549051908152f35b82853461025a578160031936011261025a5760195490516001600160a01b039091168152602090f35b82853461025a578160031936011261025a5760209060ff6002541690519015158152f35b5050823461025a578160031936011261025a57610f61611da1565b600554421061106457601160ff81541661105457610f84600d54600e5490611b63565b906008548210600014610fcd57600080516020611fb683398151915293945061010061ff00198254161781555b805460ff19166001179055600f5482519182526020820152a180f35b6019546001600160a01b039081169081610ffb575b5050600080516020611fb6833981519152939450610fb1565b600f5496606461100d6016548a611b1a565b04880397881161104257509561103a91600080516020611fb6833981519152969760025460081c16611dcd565b849386610fe2565b634e487b7160e01b8752839052602486fd5b81516391702baf60e01b81528490fd5b51639d98b04b60e01b81529050fd5b828585346102f357826003193601126102f357602092505442101590816110d2575b816110c4575b816110a9575b519015158152f35b90506110ba600d54600e5490611b63565b60075411906110a1565b60025460ff1615915061109b565b6005544211159150611095565b82853461025a578160031936011261025a5760209060ff60115460081c1690519015158152f35b838584346105ac5760203660031901126105ac5760ff91906001600160a01b0390829082611132611b04565b168152600c602052208054946001820154936002830154906005600385015493850154940154958151988952602089015287015260608601526080850152811660a084015260a01c1660c0820152f35b828585346102f357826003193601126102f35761119d611da1565b6002549060ff8216156111df575060ff1916600255513381527f5db9ee0a495bf2e6ff9c91a7834c1ba4fdd244a5e8aa4e537bd38aeae4b073aa90602090a180f35b8251638dfc202b60e01b8152fd5b828585346102f35760603660031901126102f35780356024359160443593611213611da1565b60198311611274578484101561123157505060165560175560185580f35b906020606492519162461bcd60e51b8352820152602060248201527f436c696666206d757374206265206c657373207468616e206475726174696f6e6044820152fd5b906020606492519162461bcd60e51b835282015260146024820152730a88e8a40e0cae4c6cadce840e8dede40d0d2ced60631b6044820152fd5b5050903461025a5760c036600319011261025a576112ca611abf565b602435604435916064356084359060ff60a435936112e6611da1565b1695600187101580611468575b1561143357805485106113f75760055486116113be579088886006898787966113b899987f31dd5fd34d799e031e9366d649c7f77cb5abf6d0e0f9a9fb7cd3699e081c7e929d9e9f519561134687611b70565b8487528d8d6020890190815289890191825260ff8a60608b01948d865260808c0196875260a08c0198895260c08c0199818b528152600b6020522099511660ff198a54161789555160018901555160028801555160038701555190850155516005840155519101555195869586611bdf565b0390a280f35b60649060208a519162461bcd60e51b835282015260136024820152725469657220656e642061667465722073616c6560681b6044820152fd5b60649060208a519162461bcd60e51b8352820152601660248201527554696572207374617274206265666f72652073616c6560501b6044820152fd5b60649060208a519162461bcd60e51b8352820152600f60248201526e125b9d985b1a59081d1a595c881251608a1b6044820152fd5b5060038711156112f3565b82853461025a578160031936011261025a576020906018549051908152f35b82853461025a578160031936011261025a5760035490516001600160a01b039091168152602090f35b5050823461025a57608036600319011261025a576114d7611abf565b60243591906001600160401b036044358181116117fa576114fb9036908801611ad4565b936064359460018060a01b03928387168097036117f65761151a611c7a565b611522611c9d565b600a54803a1190816117ec575b506117dc579061153f9186611cbb565b60095486106117cd5760ff841693848852602093600b8552828920670de0b6b3a764000090818a02918a8304148a1517156117ba576003015461158191611b43565b93600354168351916323b872dd60e01b878401523360248401523060448401528960648401526064835260a0830190838210908211176117a75784526115c79190611f4d565b338852600c845281882090858952600b855282892091600281016115ec868254611b63565b8c850154106117975760068401936005611607888754611b63565b91015410611797579261169592899261169d958d9e886116c99f80978d8d8215158061178d575b80611774575b611702575b505050505050906005918d61165360018401918254611b63565b9055611669611662878c611b63565b8254611b63565b9055019081549060ff8260a01c16156116d3575b50505061168d6116628388611b63565b905584611b63565b600f54611b63565b600f5585815193898552840152820152600080516020611ff683398151915260603392a4600e54611b63565b600e556001805580f35b60ff60a01b1990911660a09190911b60ff60a01b161790556010546116f790611d92565b6010558c808061167d565b60059796959a5090606461171b60139360125490611b1a565b049a870161172a8c8254611b63565b905586880180546001600160a01b0319168417905582845252828220805461175190611d92565b9055815260148d5220611765878254611b63565b905590918f89908e8d8d611639565b5050600c90828452528d8d600285852001541515611634565b503383141561162e565b84516374a5d1f560e01b81528c90fd5b634e487b7160e01b8b5260418c5260248bfd5b634e487b7160e01b8b5260118c5260248bfd5b5163cd1c886760e01b81528790fd5b825163317ed41360e21b81528a90fd5b905015158b61152f565b8880fd5b8580fd5b50509160606003193601126102f357611815611abf565b916024356001600160401b038111611abb576118349036908301611ad4565b6044356001600160a01b038116959290869003611ab757611853611c7a565b61185b611c9d565b600a54803a119081611aad575b50611a9d57906118789183611cbb565b6009543410611a8e5760ff811692838652602092600b8452818720670de0b6b3a764000090813402913483041434151715611a7b57600301546118ba91611b43565b92338852600c8552828820868952600b86528389209260028201906118e0878354611b63565b8186015410611a6d57600685019460056118fb898854611b63565b91015410611a6d57928992611970959261169595888e80978d8d82151580611a63575b80611a4a575b6119d9575b5050505050509060059161193e348354611b63565b825561194d611662878c611b63565b9055019081549060ff8260a01c16156119aa5750505061168d6116628388611b63565b600f5585815193348552840152820152600080516020611ff683398151915260603392a46119a034600d54611b63565b600d556001805580f35b60ff60a01b1990911660a09190911b60ff60a01b161790556010546119ce90611d92565b60105538808061167d565b60059796959a509060646119f260139360125490611b1a565b049a8701611a018c8254611b63565b905586880180546001600160a01b03191684179055828452528282208054611a2890611d92565b9055815260148d5220611a3c878254611b63565b90559091888e8e8d8d611929565b5050600c90828452528d8d600285852001541515611924565b503383141561191e565b85516374a5d1f560e01b8152fd5b634e487b7160e01b895260118352602489fd5b50905163cd1c886760e01b8152fd5b845163317ed41360e21b81528490fd5b9050151538611868565b8680fd5b8480fd5b6004359060ff82168203611acf57565b600080fd5b9181601f84011215611acf578235916001600160401b038311611acf576020808501948460051b010111611acf57565b600435906001600160a01b0382168203611acf57565b81810292918115918404141715611b2d57565b634e487b7160e01b600052601160045260246000fd5b8115611b4d570490565b634e487b7160e01b600052601260045260246000fd5b91908201809211611b2d57565b60e081019081106001600160401b03821117611b8b57604052565b634e487b7160e01b600052604160045260246000fd5b606081019081106001600160401b03821117611b8b57604052565b601f909101601f19168101906001600160401b03821190821017611b8b57604052565b9192608093969594919660a084019784526020840152604083015260608201520152565b3d15611c3d573d906001600160401b038211611b8b5760405191611c31601f8201601f191660200184611bbc565b82523d6000602084013e565b606090565b60405190611c4f82611b70565b8160c06000918281528260208201528260408201528260608201528260808201528260a08201520152565b600260015414611c8b576002600155565b604051633ee5aeb560e01b8152600490fd5b60ff60025416611ca957565b60405163d93c066560e01b8152600490fd5b9190600492835442108015611d87575b611d4d5760ff8116600181108015611d7d575b611d6c57600052600b602052604060002060018101544210908115611d5e575b50611d4d5790611d0f929133611e1e565b15611d3e57611d23600d54600e5490611b63565b6007541115611d2f5750565b604051634bc461a160e11b8152fd5b604051630b094f2760e31b8152fd5b60405163b7b2409760e01b81528490fd5b600291500154421138611cfe565b60405163e142361760e01b81528590fd5b5060038111611cde565b506005544211611ccb565b6000198114611b2d5760010190565b6000546001600160a01b03163303611db557565b60405163118cdaa760e01b8152336004820152602490fd5b60405163a9059cbb60e01b60208201526001600160a01b03909216602483015260448083019390935291815260808101916001600160401b03831182841017611b8b57611e1c92604052611f4d565b565b919293601554928315611f425760408051606092831b6001600160601b031916602080830191825260f89690961b6001600160f81b03191660348301526015825281830197929491926001600160401b0391828a11858b1017611b8b5789875284519020918a11611b8b576005998060051b90611e9d8983018c611bbc565b8a526060850190820191368311611acf578890915b838310611f325750505050956000965b8851881015611f2657878a1b840185015160019190808211611f035787519089820192835288820152878152611ef781611ba1565b519020975b0196611ec2565b9087519089820192835288820152878152611f1d81611ba1565b51902097611efc565b14975095505050505050565b8235815291810191899101611eb2565b509350505050600190565b906000602091828151910182855af115611fa9576000513d611fa057506001600160a01b0381163b155b611f7e5750565b604051635274afe760e01b81526001600160a01b039091166004820152602490fd5b60011415611f77565b6040513d6000823e3d90fdfe17b1a568460bc127a7f9a9677d502ac593fa4af690a1c3aed38bda591e196e2e8be0079c531659141344cd1fd0a4f28419497f9722a3daafe3b4186f6b6457e0d54a20c27ea2b1ad4b31272ade2f34074de366f09b185a3427cd88e8d96a2877a2646970667358221220cd01501a403408281abb62c3de1c6d0ff428562b139e165320d1dab80c1679d864736f6c6343000816003360803461011657601f61134338819003918201601f19168301916001600160401b0383118484101761011b5780849260209460405283398101031261011657516001600160a01b03808216918290036101165733156100fd576000549060018060a01b0319913383821617600055604051913391167f8be0079c531659141344cd1fd0a4f28419497f9722a3daafe3b4186f6b6457e0600080a36001805582156100bb5750600254161760025560405161121190816101328239f35b62461bcd60e51b815260206004820152601560248201527f496e76616c696420746f6b656e206164647265737300000000000000000000006044820152606490fd5b604051631e4fbdf760e01b815260006004820152602490fd5b600080fd5b634e487b7160e01b600052604160045260246000fdfe608060408181526004908136101561001657600080fd5b600092833560e01c908163116f71ac14610c8a57508063199cbc5414610c6c5780631bf0b08b14610a9f5780632839409514610a795780633b0da260146109825780634e71d92d146108b957806350d95d31146106b7578063715018a61461066f5780638da5cb5b146106475780639f829063146105ae578063c951dc0a14610588578063d54ad2a114610569578063d5a73fdd14610543578063db2e21bc14610461578063ddeae03314610383578063e12f3a6114610356578063f2fde38b146102e1578063fb897ce41461024a578063fc0c546a1461021d578063fdb20ccb146101b95763ff2c682c1461010b57600080fd5b346101b55760203660031901126101b557610124610caf565b61012c610feb565b6001600160a01b031691821561017c5750600680546001600160a01b03191683179055519081527fbc0a6b1ab2e3de350671c9f3c91c8a51202e82dd34770413ff41446a2489f69190602090a180f35b6020606492519162461bcd60e51b83528201526014602482015273125b9d985b1a5908125113c818dbdb9d1c9858dd60621b6044820152fd5b8280fd5b50823461021a57602036600319011261021a576102169082906001600160a01b036101e2610caf565b16815260036020522091825492600181015494600282015460ff600560038501549385015494015416935196879687610cfa565b0390f35b80fd5b83823461024657816003193601126102465760025490516001600160a01b039091168152602090f35b5080fd5b838234610246576020366003190112610246576001600160a01b0361026d610caf565b1682526003602052610216610283828420610e28565b9182519261029081611017565b9460208201518087116000146102db576102aa8188610ee4565b915b878711156102d2575060a06102c18888610ee4565b935b01511515935196879687610cfa565b60a090936102c3565b816102ac565b5090346101b55760203660031901126101b5576102fc610caf565b90610305610feb565b6001600160a01b0391821692831561034057505082546001600160a01b03198116831784551660008051602061119c8339815191528380a380f35b51631e4fbdf760e01b8152908101849052602490fd5b8382346102465760203660031901126102465760209061037c610377610caf565b610f98565b9051908152f35b5090346101b55760203660031901126101b55761039e610caf565b916103a7611158565b6001600160a01b038381168086526003602052828620805491959291156104515760ff600582015416610441576103dd83610f98565b94851561043357508460008051602061117c8339815191529593602095936001610427940161040d848254610de9565b905561041b83600554610de9565b600555600254166110b7565b51908152a26001805580f35b84516312d37ee560e31b8152fd5b5050505163905e710760e01b8152fd5b505050516366ef36c960e01b8152fd5b5090346101b557826003193601126101b55761047b610feb565b60025482516370a0823160e01b815230838201526001600160a01b039391841691602082602481865afa9384156105395786946104d3575b505050816104bf578380f35b6104cc92845416906110b7565b3880808380f35b90919293506020913d602011610531575b601f8301601f19168401916001600160401b0383118584101761051e57505260209082018290031261051a5751903880806104b3565b8380fd5b634e487b7160e01b885260419052602487fd5b3d92506104e4565b81513d88823e3d90fd5b8382346102465760203660031901126102465760209061037c610564610caf565b610f68565b8382346102465781600319360112610246576020906005549051908152f35b8382346102465760203660031901126102465760209061037c6105a9610caf565b610f17565b8382346102465760203660031901126102465760a061060f8260c0946105d2610caf565b818584516105df81610db8565b82815282602082015282868201528260608201528260808201520152600180861b03168152600360205220610e28565b8251928151845260208201516020850152808201519084015260608101516060840152608081015160808401520151151560a0820152f35b838234610246578160031936011261024657905490516001600160a01b039091168152602090f35b833461021a578060031936011261021a57610688610feb565b80546001600160a01b03198116825581906001600160a01b031660008051602061119c8339815191528280a380f35b50346101b55760a09060a060031936011261051a576001600160401b039183358381116108b5576106eb9036908601610cca565b9290936024359081116108b1576107059036908701610cca565b959060443592606435906084359260018060a01b0397888c5416331480156108a4575b61073190610d26565b8a810361086f57610743848611610d6f565b8b805b828110610751575080f35b61075c81848e610ef1565b358b81168091036101b557868a8f6001958e8c8b8f948961077d918e610ef1565b359488158015610867575b6108595788855260039260209380855283872054610849576000805160206111bc833981519152998989866108209a8f9860059a8791519c8d956107cb87610db8565b865260808287019685885286810198895260608101998a5201998a528d019a838c528352522098518955518f8901555160028801555190860155519084015551151591019060ff801983541691151516179055565b61082b818d54610de9565b8c5561083d8b8b8b5194859485610e0c565b0390a25b018c90610746565b5050505050505050505050610841565b505050505050505050610841565b508515610788565b825162461bcd60e51b8152602081880152600f60248201526e098cadccee8d040dad2e6dac2e8c6d608b1b6044820152606490fd5b5060065489163314610728565b8680fd5b8580fd5b50346101b557826003193601126101b5576108d2611158565b33835260036020528083208054156109745760ff600582015416610966576108f933610f98565b928315610958575060010161090f838254610de9565b905561091d82600554610de9565b60055560025461093990839033906001600160a01b03166110b7565b5190815260008051602061117c83398151915260203392a26001805580f35b82516312d37ee560e31b8152fd5b505163905e710760e01b8152fd5b50516366ef36c960e01b8152fd5b5090346101b55760203660031901126101b55761099d610caf565b906109a6610feb565b6001600160a01b0391821680855260036020528385208054919490918015610a6957600583019283549360ff8516610a595760016109f56109ee6109e985610e28565b611017565b8095610ee4565b9560ff19161790555581610a07578580f35b610a4b827f57c76f5e278bfbd4eeb5207d287aa5a1a9e1113c65f7eefa540e379a2774d13b9585610a3b8360209854610ee4565b90556002548954821691166110b7565b51908152a238808080808580f35b835163905e710760e01b81528690fd5b81516366ef36c960e01b81528490fd5b8382346102465760203660031901126102465760209061037c610a9a610caf565b610e73565b509190346102465760a036600319011261024657610abb610caf565b602435604435916064356084359160018060a01b03908188541633148015610c5f575b610ae790610d26565b16948515610c26578315610bee57610b00828411610d6f565b858752600360205287872054610bb9579087610bb39392610b9c6000805160206111bc83398151915298999a51610b3681610db8565b87815260058b8d602084018181528785018d815260608601918a83528960808801948d865260a0890196818852815260036020522096518755516001870155516002860155516003850155518584015551151591019060ff801983541691151516179055565b610ba7868254610de9565b90555194859485610e0c565b0390a280f35b606490602089519162461bcd60e51b8352820152600f60248201526e5363686564756c652065786973747360881b6044820152fd5b606490602089519162461bcd60e51b835282015260126024820152710416d6f756e74206d757374206265203e20360741b6044820152fd5b606490602089519162461bcd60e51b83528201526013602482015272496e76616c69642062656e656669636961727960681b6044820152fd5b5060065482163314610ade565b5090346101b557826003193601126101b55760209250549051908152f35b8490346102465781600319360112610246576006546001600160a01b03168152602090f35b600435906001600160a01b0382168203610cc557565b600080fd5b9181601f84011215610cc5578235916001600160401b038311610cc5576020808501948460051b010111610cc557565b94919260a0949197969360c0870198875260208701526040860152606085015260808401521515910152565b15610d2d57565b60405162461bcd60e51b815260206004820152601a60248201527913db9b1e481bdddb995c881bdc88125113c818dbdb9d1c9858dd60321b6044820152606490fd5b15610d7657565b60405162461bcd60e51b815260206004820152601a602482015279223ab930ba34b7b71036bab9ba1032bc31b2b2b21031b634b33360311b6044820152606490fd5b60c081019081106001600160401b03821117610dd357604052565b634e487b7160e01b600052604160045260246000fd5b91908201809211610df657565b634e487b7160e01b600052601160045260246000fd5b9094939260609260808301968352602083015260408201520152565b90604051610e3581610db8565b60a060ff6005839580548552600181015460208601526002810154604086015260038101546060860152600481015460808601520154161515910152565b6001600160a01b03166000908152600360205260409020610e9390610e28565b805115610ede576040810190610eaf8251606083015190610de9565b804210610ed857506080610ec7925191015190610de9565b421015610ed357600090565b600090565b91505090565b50600090565b91908203918211610df657565b9190811015610f015760051b0190565b634e487b7160e01b600052603260045260246000fd5b6001600160a01b03166000908152600360205260409020610f3790610e28565b805115610ede578060806040610f5293015191015190610de9565b80421015610ede57610f65904290610ee4565b90565b6001600160a01b03166000908152600360205260409020610f8890610e28565b805115610ede57610f6590611017565b6001600160a01b03166000908152600360205260409020610fb890610e28565b8051158015610fde575b610ede57806020610fd5610f6593611017565b91015190610ee4565b5060a08101511515610fc2565b6000546001600160a01b03163303610fff57565b60405163118cdaa760e01b8152336004820152602490fd5b604081018051908142106110af576110356060840192835190610de9565b908142106110a657519161104f6080850193845190610de9565b42101561109f5761106361106d9242610ee4565b9251905190610ee4565b9151818102918183041490151715610df6578115611089570490565b634e487b7160e01b600052601260045260246000fd5b5050505190565b50505050600090565b505050600090565b60405163a9059cbb60e01b602082019081526001600160a01b039384166024830152604480830195909552938152909260808201906001600160401b03821183831017610dd357602092600092604052519082865af11561114c576000513d61114357508082163b155b611129575050565b604051635274afe760e01b81529116600482015260249150fd5b60011415611121565b6040513d6000823e3d90fd5b600260015414611169576002600155565b604051633ee5aeb560e01b8152600490fdfe896e034966eaaf1adc54acc0f257056febbd300c9e47182cf761982cf1f5e4308be0079c531659141344cd1fd0a4f28419497f9722a3daafe3b4186f6b6457e047d46f58c7d60d60571092cff5715b8c8c5bc1347db2bb9890e639bf3680ba7ba26469706673582212203c4e07637ce32876245c701ce0bc086d7eb43c634d1f5ea6fdbd1794c4f1ec6964736f6c63430008160033608080604052346100875733156100715760008054336001600160a01b03198216811783556040519290916001600160a01b0316907f8be0079c531659141344cd1fd0a4f28419497f9722a3daafe3b4186f6b6457e09080a3600160ff196003541617600355610b86908161008d8239f35b631e4fbdf760e01b815260006004820152602490fd5b600080fdfe6040608081526004908136101561001557600080fd5b600091823560e01c908163052d9e7e146106385781632eb4a7ab146106195781634bc935d7146105c457816351fb012d146105a05781637081a13114610485578163715018a61461043a5781637cb64759146103ef578163806c6ebd146103805781638da5cb5b1461035857816393494c0614610309578163c68b83311461021d578163e95dfd7014610160578163f2fde38b146100e7575063f9a6a1fd146100bd57600080fd5b346100e3576020906100da6100d1366107ca565b92919091610a6a565b90519015158152f35b5080fd5b90503461015c57602036600319011261015c576101026107b4565b9061010b610ae4565b6001600160a01b0391821692831561014657505082546001600160a01b031981168317845516600080516020610b318339815191528380a380f35b51631e4fbdf760e01b8152908101849052602490fd5b8280fd5b5050346100e35760208060031936011261015c57829061017e6107b4565b9280519361018b856106af565b606036863760018060a01b031691828452600281528184209260019360018652825260ff8386205416151586528085526002825282852060028652825260ff83862054161515828701528452600281528184209160039260038652825260ff81862054161515818701525193849590955b83871061020857606086f35b815115158152958401959082019082016101fc565b839150346100e35760603660031901126100e3576102396107b4565b6102416107a4565b61024961069b565b91610252610ae4565b6001600160a01b03169283156102d457506102c3600080516020610b1183398151915293949560ff83166001811015806102c9575b61029090610894565b86885260026020528188209088526020526102b9848289209060ff801983541691151516179055565b5192839283610909565b0390a280f35b506003811115610287565b606490602087519162461bcd60e51b8352820152600f60248201526e496e76616c6964206164647265737360881b6044820152fd5b5050346100e357806003193601126100e35760ff816020936103296107b4565b6103316107a4565b6001600160a01b039091168252600286528282209084168252855220549151911615158152f35b5050346100e357816003193601126100e357905490516001600160a01b039091168152602090f35b5050346100e35761039c610393366107ca565b9291909161094b565b91805193849215158352602082602085015284518093850152815b8381106103d857505060608094508284010152601f80199101168101030190f35b8086018201518782016060015286945081016103b7565b8390346100e35760203660031901126100e3573561040b610ae4565b60015490806001557ffd69edeceaf1d6832d935be1fba54ca93bf17e71520c6c9ffc08d6e9529f87578380a380f35b8334610482578060031936011261048257610453610ae4565b80546001600160a01b03198116825581906001600160a01b0316600080516020610b318339815191528280a380f35b80fd5b90503461015c57606036600319011261015c578035906001600160401b03821161059c576104b591369101610774565b90916104bf6107a4565b916104c861069b565b6104d0610ae4565b60ff841693600195600186101580610591575b6104ec90610894565b875b8481106104f9578880f35b87906001600160a01b0380610517610512848a886108cf565b6108f5565b161561058b578061052c610512848a886108cf565b168b52602060028152888c20908a8d525261055586898d209060ff801983541691151516179055565b6105636105128389876108cf565b16600080516020610b11833981519152885180610581898983610909565b0390a25b016104ee565b50610585565b5060038611156104e3565b8380fd5b5050346100e357816003193601126100e35760209060ff6003541690519015158152f35b828434610482576060366003190112610482578235906001600160401b0382116104825736602383011215610482575061060c6020938260246100da9436930135910161071e565b604435906024359061081a565b5050346100e357816003193601126100e3576020906001549051908152f35b90503461015c57602036600319011261015c57359081151580920361015c577f1cf28b997975c7be355bcef74f2f5019aa48253bc1e54b3c8b002471865fdba891602091610684610ae4565b60ff196003541660ff83161760035551908152a180f35b6044359081151582036106aa57565b600080fd5b606081019081106001600160401b038211176106ca57604052565b634e487b7160e01b600052604160045260246000fd5b604081019081106001600160401b038211176106ca57604052565b601f909101601f19168101906001600160401b038211908210176106ca57604052565b9092916001600160401b0384116106ca578360051b6020926020604051610747828501826106fb565b80978152019181019283116106aa57905b8282106107655750505050565b81358152908301908301610758565b9181601f840112156106aa578235916001600160401b0383116106aa576020808501948460051b0101116106aa57565b6024359060ff821682036106aa57565b600435906001600160a01b03821682036106aa57565b60606003198201126106aa576004356001600160a01b03811681036106aa579160243560ff811681036106aa5791604435906001600160401b0382116106aa5761081691600401610774565b9091565b9091906000915b815183101561088d576001906020808560051b850101518083111560001461086957604090815192830193845281830152815261085d816106af565b519020925b0191610821565b916040908151928301938452818301528152610884816106af565b51902092610862565b9150501490565b1561089b57565b60405162461bcd60e51b815260206004820152600c60248201526b24b73b30b634b2103a34b2b960a11b6044820152606490fd5b91908110156108df5760051b0190565b634e487b7160e01b600052603260045260246000fd5b356001600160a01b03811681036106aa5790565b60ff9091168152901515602082015260400190565b60609190911b6001600160601b031916815260f89190911b6001600160f81b031916601482015260150190565b90939260ff6003541615610a3e5760018060a01b038216600052602092600284526040958660002060ff8216600052855260ff876000205416610a225760015491826109b7575b5050505050636e6f6e6560e01b60009351916109ad836106e0565b6004835282015290565b6109f2946109d46109e26109ed948b519283918b8301958661091e565b03601f1981018352826106fb565b51902093369161071e565b61081a565b610a00573880808080610992565b656d65726b6c6560d01b6001935191610a18836106e0565b6006835282015290565b50505050651b585b9d585b60d21b6001935191610a18836106e0565b5050509050600190604051610a52816106e0565b6008815267191a5cd8589b195960c21b602082015290565b92919060ff6003541615610adb5760018060a01b0384166000526002602052604060002060ff821660005260205260ff60406000205416610adb57600154918215610ad157610ace946109d46109e26109ed9460405192839160208301958661091e565b90565b5050505050600090565b50505050600190565b6000546001600160a01b03163303610af857565b60405163118cdaa760e01b8152336004820152602490fdfef3c6f8afc4eb985628541edf2dfd1e872ddf3b11974f940bdd7fe24583f4fe8a8be0079c531659141344cd1fd0a4f28419497f9722a3daafe3b4186f6b6457e0a2646970667358221220516822358104456ded141694862c54ffba0df758c780fe981157a2eaa94ebd6564736f6c634300081600338be0079c531659141344cd1fd0a4f28419497f9722a3daafe3b4186f6b6457e0a2646970667358221220f22941498bf1fffff80fb97f97c8136a45ef4ceb5a02716c0e67945dcc50db3164736f6c63430008160033",
  "linkReferences": {},
  "deployedLinkReferences": {}
}