{
  "_format": "hh-sol-artifact-1",
  "contractName": "IDOSaleV2",
  "sourceName": "contracts/ido/IDOSaleV2.sol",
  "abi": [
    {
      "inputs": [
        {
          "internalType": "uint256",
          "name": "_saleId",
          "type": "uint256"
        },
        {
          "internalType": "address",
          "name": "_factory",
          "type": "address"
        },
        {
          "internalType": "address",
          "name": "_saleToken",
          "type": "address"
        },
        {
          "internalType": "address",
          "name": "_usdcToken",
          "type": "address"
        }
      ],
      "stateMutability": "nonpayable",
      "type": "constructor"
    },
    {
      "inputs": [],
      "name": "AllocationExceeded",
      "type": "error"
    },
    {
      "inputs": [],
      "name": "AlreadyClaimed",
      "type": "error"
    },
    {
      "inputs": [],
      "name": "EnforcedPause",
      "type": "error"
    },
    {
      "inputs": [],
      "name": "ExpectedPause",
      "type": "error"
    },
    {
      "inputs": [],
      "name": "GasPriceTooHigh",
      "type": "error"
    },
    {
      "inputs": [],
      "name": "HardCapReached",
      "type": "error"
    },
    {
      "inputs": [],
      "name": "InsufficientPayment",
      "type": "error"
    },
    {
      "inputs": [],
      "name": "InvalidAmount",
      "type": "error"
    },
    {
      "inputs": [],
      "name": "InvalidReferrer",
      "type": "error"
    },
    {
      "inputs": [],
      "name": "InvalidTier",
      "type": "error"
    },
    {
      "inputs": [],
      "name": "NoAllocation",
      "type": "error"
    },
    {
      "inputs": [],
      "name": "NotWhitelisted",
      "type": "error"
    },
    {
      "inputs": [
        {
          "internalType": "address",
          "name": "owner",
          "type": "address"
        }
      ],
      "name": "OwnableInvalidOwner",
      "type": "error"
    },
    {
      "inputs": [
        {
          "internalType": "address",
          "name": "account",
          "type": "address"
        }
      ],
      "name": "OwnableUnauthorizedAccount",
      "type": "error"
    },
    {
      "inputs": [],
      "name": "ReentrancyGuardReentrantCall",
      "type": "error"
    },
    {
      "inputs": [],
      "name": "RefundNotAvailable",
      "type": "error"
    },
    {
      "inputs": [
        {
          "internalType": "address",
          "name": "token",
          "type": "address"
        }
      ],
      "name": "SafeERC20FailedOperation",
      "type": "error"
    },
    {
      "inputs": [],
      "name": "SaleAlreadyFinalized",
      "type": "error"
    },
    {
      "inputs": [],
      "name": "SaleNotActive",
      "type": "error"
    },
    {
      "inputs": [],
      "name": "SaleNotEnded",
      "type": "error"
    },
    {
      "inputs": [],
      "name": "SoftCapNotMet",
      "type": "error"
    },
    {
      "anonymous": false,
      "inputs": [
        {
          "indexed": true,
          "internalType": "address",
          "name": "previousOwner",
          "type": "address"
        },
        {
          "indexed": true,
          "internalType": "address",
          "name": "newOwner",
          "type": "address"
        }
      ],
      "name": "OwnershipTransferred",
      "type": "event"
    },
    {
      "anonymous": false,
      "inputs": [
        {
          "indexed": false,
          "internalType": "address",
          "name": "account",
          "type": "address"
        }
      ],
      "name": "Paused",
      "type": "event"
    },
    {
      "anonymous": false,
      "inputs": [
        {
          "indexed": true,
          "internalType": "address",
          "name": "user",
          "type": "address"
        },
        {
          "indexed": false,
          "internalType": "uint256",
          "name": "ethAmount",
          "type": "uint256"
        },
        {
          "indexed": false,
          "internalType": "uint256",
          "name": "usdcAmount",
          "type": "uint256"
        }
      ],
      "name": "RefundClaimed",
      "type": "event"
    },
    {
      "anonymous": false,
      "inputs": [
        {
          "indexed": false,
          "internalType": "uint256",
          "name": "startTime",
          "type": "uint256"
        },
        {
          "indexed": false,
          "internalType": "uint256",
          "name": "endTime",
          "type": "uint256"
        },
        {
          "indexed": false,
          "internalType": "uint256",
          "name": "tokenPrice",
          "type": "uint256"
        },
        {
          "indexed": false,
          "internalType": "uint256",
          "name": "hardCap",
          "type": "uint256"
        },
        {
          "indexed": false,
          "internalType": "uint256",
          "name": "softCap",
          "type": "uint256"
        }
      ],
      "name": "SaleConfigured",
      "type": "event"
    },
    {
      "anonymous": false,
      "inputs": [
        {
          "indexed": false,
          "internalType": "uint256",
          "name": "totalRaised",
          "type": "uint256"
        },
        {
          "indexed": false,
          "internalType": "uint256",
          "name": "totalSold",
          "type": "uint256"
        }
      ],
      "name": "SaleFinalized",
      "type": "event"
    },
    {
      "anonymous": false,
      "inputs": [
        {
          "indexed": true,
          "internalType": "address",
          "name": "user",
          "type": "address"
        },
        {
          "indexed": false,
          "internalType": "uint256",
          "name": "amount",
          "type": "uint256"
        }
      ],
      "name": "TGEClaimed",
      "type": "event"
    },
    {
      "anonymous": false,
      "inputs": [
        {
          "indexed": true,
          "internalType": "uint8",
          "name": "tierId",
          "type": "uint8"
        },
        {
          "indexed": false,
          "internalType": "uint256",
          "name": "startTime",
          "type": "uint256"
        },
        {
          "indexed": false,
          "internalType": "uint256",
          "name": "endTime",
          "type": "uint256"
        },
        {
          "indexed": false,
          "internalType": "uint256",
          "name": "tokenPrice",
          "type": "uint256"
        },
        {
          "indexed": false,
          "internalType": "uint256",
          "name": "maxAllocation",
          "type": "uint256"
        },
        {
          "indexed": false,
          "internalType": "uint256",
          "name": "totalAllocation",
          "type": "uint256"
        }
      ],
      "name": "TierConfigured",
      "type": "event"
    },
    {
      "anonymous": false,
      "inputs": [
        {
          "indexed": true,
          "internalType": "address",
          "name": "buyer",
          "type": "address"
        },
        {
          "indexed": true,
          "internalType": "uint8",
          "name": "tier",
          "type": "uint8"
        },
        {
          "indexed": false,
          "internalType": "uint256",
          "name": "ethAmount",
          "type": "uint256"
        },
        {
          "indexed": false,
          "internalType": "uint256",
          "name": "usdcAmount",
          "type": "uint256"
        },
        {
          "indexed": false,
          "internalType": "uint256",
          "name": "tokenAmount",
          "type": "uint256"
        },
        {
          "indexed": true,
          "internalType": "address",
          "name": "referrer",
          "type": "address"
        }
      ],
      "name": "TokensPurchased",
      "type": "event"
    },
    {
      "anonymous": false,
      "inputs": [
        {
          "indexed": false,
          "internalType": "address",
          "name": "account",
          "type": "address"
        }
      ],
      "name": "Unpaused",
      "type": "event"
    },
    {
      "anonymous": false,
      "inputs": [
        {
          "indexed": false,
          "internalType": "address",
          "name": "vestingContract",
          "type": "address"
        }
      ],
      "name": "VestingContractSet",
      "type": "event"
    },
    {
      "anonymous": false,
      "inputs": [
        {
          "indexed": false,
          "internalType": "bytes32",
          "name": "merkleRoot",
          "type": "bytes32"
        }
      ],
      "name": "WhitelistUpdated",
      "type": "event"
    },
    {
      "inputs": [
        {
          "internalType": "uint8",
          "name": "_tier",
          "type": "uint8"
        },
        {
          "internalType": "bytes32[]",
          "name": "_merkleProof",
          "type": "bytes32[]"
        },
        {
          "internalType": "address",
          "name": "_referrer",
          "type": "address"
        }
      ],
      "name": "buyTokensWithETH",
      "outputs": [],
      "stateMutability": "payable",
      "type": "function"
    },
    {
      "inputs": [
        {
          "internalType": "uint8",
          "name": "_tier",
          "type": "uint8"
        },
        {
          "internalType": "uint256",
          "name": "_usdcAmount",
          "type": "uint256"
        },
        {
          "internalType": "bytes32[]",
          "name": "_merkleProof",
          "type": "bytes32[]"
        },
        {
          "internalType": "address",
          "name": "_referrer",
          "type": "address"
        }
      ],
      "name": "buyTokensWithUSDC",
      "outputs": [],
      "stateMutability": "nonpayable",
      "type": "function"
    },
    {
      "inputs": [],
      "name": "claimRefund",
      "outputs": [],
      "stateMutability": "nonpayable",
      "type": "function"
    },
    {
      "inputs": [],
      "name": "claimTGE",
      "outputs": [],
      "stateMutability": "nonpayable",
      "type": "function"
    },
    {
      "inputs": [
        {
          "internalType": "uint256",
          "name": "_startTime",
          "type": "uint256"
        },
        {
          "internalType": "uint256",
          "name": "_endTime",
          "type": "uint256"
        },
        {
          "internalType": "uint256",
          "name": "_tokenPrice",
          "type": "uint256"
        },
        {
          "internalType": "uint256",
          "name": "_hardCap",
          "type": "uint256"
        },
        {
          "internalType": "uint256",
          "name": "_softCap",
          "type": "uint256"
        },
        {
          "internalType": "uint256",
          "name": "_minContribution",
          "type": "uint256"
        },
        {
          "internalType": "uint256",
          "name": "_maxGasPrice",
          "type": "uint256"
        }
      ],
      "name": "configureSale",
      "outputs": [],
      "stateMutability": "nonpayable",
      "type": "function"
    },
    {
      "inputs": [
        {
          "internalType": "uint8",
          "name": "_tierId",
          "type": "uint8"
        },
        {
          "internalType": "uint256",
          "name": "_startTime",
          "type": "uint256"
        },
        {
          "internalType": "uint256",
          "name": "_endTime",
          "type": "uint256"
        },
        {
          "internalType": "uint256",
          "name": "_tokenPrice",
          "type": "uint256"
        },
        {
          "internalType": "uint256",
          "name": "_maxAllocation",
          "type": "uint256"
        },
        {
          "internalType": "uint256",
          "name": "_totalAllocation",
          "type": "uint256"
        }
      ],
      "name": "configureTier",
      "outputs": [],
      "stateMutability": "nonpayable",
      "type": "function"
    },
    {
      "inputs": [
        {
          "internalType": "address",
          "name": "",
          "type": "address"
        }
      ],
      "name": "contributions",
      "outputs": [
        {
          "internalType": "uint256",
          "name": "totalETH",
          "type": "uint256"
        },
        {
          "internalType": "uint256",
          "name": "totalUSDC",
          "type": "uint256"
        },
        {
          "internalType": "uint256",
          "name": "totalTokens",
          "type": "uint256"
        },
        {
          "internalType": "uint256",
          "name": "claimedTGE",
          "type": "uint256"
        },
        {
          "internalType": "uint256",
          "name": "referralBonus",
          "type": "uint256"
        },
        {
          "internalType": "address",
          "name": "referrer",
          "type": "address"
        },
        {
          "internalType": "uint8",
          "name": "tier",
          "type": "uint8"
        }
      ],
      "stateMutability": "view",
      "type": "function"
    },
    {
      "inputs": [],
      "name": "emergencyWithdraw",
      "outputs": [],
      "stateMutability": "nonpayable",
      "type": "function"
    },
    {
      "inputs": [],
      "name": "factory",
      "outputs": [
        {
          "internalType": "address",
          "name": "",
          "type": "address"
        }
      ],
      "stateMutability": "view",
      "type": "function"
    },
    {
      "inputs": [],
      "name": "finalizeSale",
      "outputs": [],
      "stateMutability": "nonpayable",
      "type": "function"
    },
    {
      "inputs": [
        {
          "internalType": "uint8",
          "name": "_tierId",
          "type": "uint8"
        }
      ],
      "name": "getTierConfig",
      "outputs": [
        {
          "components": [
            {
              "internalType": "uint8",
              "name": "tierId",
              "type": "uint8"
            },
            {
              "internalType": "uint256",
              "name": "startTime",
              "type": "uint256"
            },
            {
              "internalType": "uint256",
              "name": "endTime",
              "type": "uint256"
            },
            {
              "internalType": "uint256",
              "name": "tokenPrice",
              "type": "uint256"
            },
            {
              "internalType": "uint256",
              "name": "maxAllocation",
              "type": "uint256"
            },
            {
              "internalType": "uint256",
              "name": "totalAllocation",
              "type": "uint256"
            },
            {
              "internalType": "uint256",
              "name": "tokensSold",
              "type": "uint256"
            }
          ],
          "internalType": "struct IDOSaleV2.TierConfig",
          "name": "",
          "type": "tuple"
        }
      ],
      "stateMutability": "view",
      "type": "function"
    },
    {
      "inputs": [],
      "name": "getTotalRaised",
      "outputs": [
        {
          "internalType": "uint256",
          "name": "",
          "type": "uint256"
        }
      ],
      "stateMutability": "view",
      "type": "function"
    },
    {
      "inputs": [
        {
          "internalType": "address",
          "name": "_user",
          "type": "address"
        }
      ],
      "name": "getUserContribution",
      "outputs": [
        {
          "components": [
            {
              "internalType": "uint256",
              "name": "totalETH",
              "type": "uint256"
            },
            {
              "internalType": "uint256",
              "name": "totalUSDC",
              "type": "uint256"
            },
            {
              "internalType": "uint256",
              "name": "totalTokens",
              "type": "uint256"
            },
            {
              "internalType": "uint256",
              "name": "claimedTGE",
              "type": "uint256"
            },
            {
              "internalType": "uint256",
              "name": "referralBonus",
              "type": "uint256"
            },
            {
              "internalType": "address",
              "name": "referrer",
              "type": "address"
            },
            {
              "internalType": "uint8",
              "name": "tier",
              "type": "uint8"
            }
          ],
          "internalType": "struct IDOSaleV2.UserContribution",
          "name": "",
          "type": "tuple"
        }
      ],
      "stateMutability": "view",
      "type": "function"
    },
    {
      "inputs": [],
      "name": "isSaleActive",
      "outputs": [
        {
          "internalType": "bool",
          "name": "",
          "type": "bool"
        }
      ],
      "stateMutability": "view",
      "type": "function"
    },
    {
      "inputs": [],
      "name": "owner",
      "outputs": [
        {
          "internalType": "address",
          "name": "",
          "type": "address"
        }
      ],
      "stateMutability": "view",
      "type": "function"
    },
    {
      "inputs": [],
      "name": "pause",
      "outputs": [],
      "stateMutability": "nonpayable",
      "type": "function"
    },
    {
      "inputs": [],
      "name": "paused",
      "outputs": [
        {
          "internalType": "bool",
          "name": "",
          "type": "bool"
        }
      ],
      "stateMutability": "view",
      "type": "function"
    },
    {
      "inputs": [],
      "name": "referralBonusPercent",
      "outputs": [
        {
          "internalType": "uint256",
          "name": "",
          "type": "uint256"
        }
      ],
      "stateMutability": "view",
      "type": "function"
    },
    {
      "inputs": [
        {
          "internalType": "address",
          "name": "",
          "type": "address"
        }
      ],
      "name": "referralCount",
      "outputs": [
        {
          "internalType": "uint256",
          "name": "",
          "type": "uint256"
        }
      ],
      "stateMutability": "view",
      "type": "function"
    },
    {
      "inputs": [
        {
          "internalType": "address",
          "name": "",
          "type": "address"
        }
      ],
      "name": "referralEarnings",
      "outputs": [
        {
          "internalType": "uint256",
          "name": "",
          "type": "uint256"
        }
      ],
      "stateMutability": "view",
      "type": "function"
    },
    {
      "inputs": [],
      "name": "refundEnabled",
      "outputs": [
        {
          "internalType": "bool",
          "name": "",
          "type": "bool"
        }
      ],
      "stateMutability": "view",
      "type": "function"
    },
    {
      "inputs": [],
      "name": "renounceOwnership",
      "outputs": [],
      "stateMutability": "nonpayable",
      "type": "function"
    },
    {
      "inputs": [],
      "name": "saleConfig",
      "outputs": [
        {
          "internalType": "uint256",
          "name": "startTime",
          "type": "uint256"
        },
        {
          "internalType": "uint256",
          "name": "endTime",
          "type": "uint256"
        },
        {
          "internalType": "uint256",
          "name": "tokenPrice",
          "type": "uint256"
        },
        {
          "internalType": "uint256",
          "name": "hardCap",
          "type": "uint256"
        },
        {
          "internalType": "uint256",
          "name": "softCap",
          "type": "uint256"
        },
        {
          "internalType": "uint256",
          "name": "minContribution",
          "type": "uint256"
        },
        {
          "internalType": "uint256",
          "name": "maxGasPrice",
          "type": "uint256"
        }
      ],
      "stateMutability": "view",
      "type": "function"
    },
    {
      "inputs": [],
      "name": "saleFinalized",
      "outputs": [
        {
          "internalType": "bool",
          "name": "",
          "type": "bool"
        }
      ],
      "stateMutability": "view",
      "type": "function"
    },
    {
      "inputs": [],
      "name": "saleId",
      "outputs": [
        {
          "internalType": "uint256",
          "name": "",
          "type": "uint256"
        }
      ],
      "stateMutability": "view",
      "type": "function"
    },
    {
      "inputs": [],
      "name": "saleToken",
      "outputs": [
        {
          "internalType": "contract IERC20",
          "name": "",
          "type": "address"
        }
      ],
      "stateMutability": "view",
      "type": "function"
    },
    {
      "inputs": [
        {
          "internalType": "uint256",
          "name": "_bonusPercent",
          "type": "uint256"
        }
      ],
      "name": "setReferralBonus",
      "outputs": [],
      "stateMutability": "nonpayable",
      "type": "function"
    },
    {
      "inputs": [
        {
          "internalType": "address",
          "name": "_vestingContract",
          "type": "address"
        }
      ],
      "name": "setVestingContract",
      "outputs": [],
      "stateMutability": "nonpayable",
      "type": "function"
    },
    {
      "inputs": [
        {
          "internalType": "uint256",
          "name": "_tgePercent",
          "type": "uint256"
        },
        {
          "internalType": "uint256",
          "name": "_cliff",
          "type": "uint256"
        },
        {
          "internalType": "uint256",
          "name": "_duration",
          "type": "uint256"
        }
      ],
      "name": "setVestingParams",
      "outputs": [],
      "stateMutability": "nonpayable",
      "type": "function"
    },
    {
      "inputs": [
        {
          "internalType": "bytes32",
          "name": "_merkleRoot",
          "type": "bytes32"
        }
      ],
      "name": "setWhitelistMerkleRoot",
      "outputs": [],
      "stateMutability": "nonpayable",
      "type": "function"
    },
    {
      "inputs": [],
      "name": "tgeUnlockPercent",
      "outputs": [
        {
          "internalType": "uint256",
          "name": "",
          "type": "uint256"
        }
      ],
      "stateMutability": "view",
      "type": "function"
    },
    {
      "inputs": [
        {
          "internalType": "uint8",
          "name": "",
          "type": "uint8"
        }
      ],
      "name": "tiers",
      "outputs": [
        {
          "internalType": "uint8",
          "name": "tierId",
          "type": "uint8"
        },
        {
          "internalType": "uint256",
          "name": "startTime",
          "type": "uint256"
        },
        {
          "internalType": "uint256",
          "name": "endTime",
          "type": "uint256"
        },
        {
          "internalType": "uint256",
          "name": "tokenPrice",
          "type": "uint256"
        },
        {
          "internalType": "uint256",
          "name": "maxAllocation",
          "type": "uint256"
        },
        {
          "internalType": "uint256",
          "name": "totalAllocation",
          "type": "uint256"
        },
        {
          "internalType": "uint256",
          "name": "tokensSold",
          "type": "uint256"
        }
      ],
      "stateMutability": "view",
      "type": "function"
    },
    {
      "inputs": [],
      "name": "totalParticipants",
      "outputs": [
        {
          "internalType": "uint256",
          "name": "",
          "type": "uint256"
        }
      ],
      "stateMutability": "view",
      "type": "function"
    },
    {
      "inputs": [],
      "name": "totalRaisedETH",
      "outputs": [
        {
          "internalType": "uint256",
          "name": "",
          "type": "uint256"
        }
      ],
      "stateMutability": "view",
      "type": "function"
    },
    {
      "inputs": [],
      "name": "totalRaisedUSDC",
      "outputs": [
        {
          "internalType": "uint256",
          "name": "",
          "type": "uint256"
        }
      ],
      "stateMutability": "view",
      "type": "function"
    },
    {
      "inputs": [],
      "name": "totalTokensSold",
      "outputs": [
        {
          "internalType": "uint256",
          "name": "",
          "type": "uint256"
        }
      ],
      "stateMutability": "view",
      "type": "function"
    },
    {
      "inputs": [
        {
          "internalType": "address",
          "name": "newOwner",
          "type": "address"
        }
      ],
      "name": "transferOwnership",
      "outputs": [],
      "stateMutability": "nonpayable",
      "type": "function"
    },
    {
      "inputs": [],
      "name": "unpause",
      "outputs": [],
      "stateMutability": "nonpayable",
      "type": "function"
    },
    {
      "inputs": [],
      "name": "usdcToken",
      "outputs": [
        {
          "internalType": "contract IERC20",
          "name": "",
          "type": "address"
        }
      ],
      "stateMutability": "view",
      "type": "function"
    },
    {
      "inputs": [],
      "name": "vestingCliff",
      "outputs": [
        {
          "internalType": "uint256",
          "name": "",
          "type": "uint256"
        }
      ],
      "stateMutability": "view",
      "type": "function"
    },
    {
      "inputs": [],
      "name": "vestingContract",
      "outputs": [
        {
          "internalType": "address",
          "name": "",
          "type": "address"
        }
      ],
      "stateMutability": "view",
      "type": "function"
    },
    {
      "inputs": [],
      "name": "vestingDuration",
      "outputs": [
        {
          "internalType": "uint256",
          "name": "",
          "type": "uint256"
        }
      ],
      "stateMutability": "view",
      "type": "function"
    },
    {
      "inputs": [],
      "name": "whitelistMerkleRoot",
      "outputs": [
        {
          "internalType": "bytes32",
          "name": "",
          "type": "bytes32"
        }
      ],
      "stateMutability": "view",
      "type": "function"
    },
    {
      "stateMutability": "payable",
      "type": "receive"
    }
  ],
  "bytecode": "0x60c0346200023557601f620022b138819003918201601f191683019291906001600160401b038411838510176200023a57816080928492604096875283398101031262000235578051620000566020830162000250565b916200007260606200006a86840162000250565b920162000250565b9233156200021d57600080546001600160a01b031980821633908117845588516001600160a01b039892979492939092908916907f8be0079c531659141344cd1fd0a4f28419497f9722a3daafe3b4186f6b6457e09080a360018055600a601255600f6016556276a7006017556301e1338060185586851615620001db575085169485156200019757821615620001535760805260a05260025490610100600160a81b039060081b1690610100600160a81b0319161760025560035416176003555161204b9081620002668239608051816105c7015260a051816105ff0152f35b855162461bcd60e51b815260206004820152601760248201527f496e76616c696420666163746f727920616464726573730000000000000000006044820152606490fd5b865162461bcd60e51b815260206004820152601460248201527f496e76616c6964205553444320616464726573730000000000000000000000006044820152606490fd5b62461bcd60e51b815260206004820152601a60248201527f496e76616c69642073616c6520746f6b656e20616464726573730000000000006044820152606490fd5b8451631e4fbdf760e01b815260006004820152602490fd5b600080fd5b634e487b7160e01b600052604160045260246000fd5b51906001600160a01b0382168203620002355756fe604060808152600480361015610054575b361561001b57600080fd5b6020606492519162461bcd60e51b835282015260146024820152730aae6ca40c4eaf2a8ded6cadce6aed2e8d08aa8960631b6044820152fd5b600060e08135811c9081630add8306146117fe5781630bd73dbb146114bb57816311eac855146114925781631514617e146114735781631ae82b02146112ae5781632b2f4d84146111ed5781633f4ba83a1461118257816342e94c90146111065781634c4a386f146110df578163564566a81461107357816358a687ec14610f465781635c975abb14610f225781635e6f604514610ef957816363b2011714610eda578163715018a614610e925781637499156914610de15781638456cb5914610d865781638da5cb5b14610d5e57816390aa0b0f14610d0f578163997f507014610b3d5781639a037aa014610ada5781639b57002f14610abb5781639b8c1fed146109ed5781639f550293146109c2578163a26dbf26146109a3578163a5f0dea21461097f578163aa98e0c614610960578163b5545a3c14610834578163bb8b2b471461076e578163bd32fb661461071f578163c022c52314610666578163c07b528a1461062e578163c45a0155146105ea578163c84c0387146105af578163d1d799741461053a57508063db2e21bc1461039a578063db74559b14610362578063e9715de914610343578063e985e36714610316578063f02cbb95146102f7578063f2fde38b1461027d578063f3640e741461025e5763f71e4bef1461023c5750610010565b823461025a578160031936011261025a57602090600d549051908152f35b5080fd5b50823461025a578160031936011261025a576020906017549051908152f35b509190346102f35760203660031901126102f357610299611b04565b906102a2611da1565b6001600160a01b039182169283156102dd57505082546001600160a01b031981168317845516600080516020611fd68339815191528380a380f35b51631e4fbdf760e01b8152908101849052602490fd5b8280fd5b50823461025a578160031936011261025a57602090600e549051908152f35b50823461025a578160031936011261025a57600254905160089190911c6001600160a01b03168152602090f35b50823461025a578160031936011261025a576020906012549051908152f35b50823461025a57602036600319011261025a5760209181906001600160a01b0361038a611b04565b1681526013845220549051908152f35b50809183346105365782600319360112610536576103b6611da1565b479160018060a01b039283600354169280519586926370a0823160e01b95868552308686015284602460209687935afa9586156104f95787988397610503575b50849060246002549186519a8b9384928352308b84015260081c165afa9687156104f95782976104ca575b5080610472575b505050505080610459575b508061043d578280f35b816104539260025460081c169084541690611dcd565b81808280f35b61046c9083600354168486541690611dcd565b83610433565b818080928a8254165af1610484611c03565b5015610491578681610428565b5162461bcd60e51b8152918201526015602482015274115512081dda5d1a191c985dd85b0819985a5b1959605a1b604482015260649150fd5b9096508381813d83116104f2575b6104e28183611bbc565b8101031261025a57519589610421565b503d6104d8565b83513d84823e3d90fd5b975095508387813d811161052f575b61051c8183611bbc565b8101031261025a578388975196906103f6565b503d610512565b5050fd5b848484346105ac5760203660031901126105ac57829060ff61055a611abf565b168152600b6020522060ff815416926001820154926002830154600384015491840154926006600586015495015495815197885260208801528601526060850152608084015260a083015260c0820152f35b80fd5b82853461025a578160031936011261025a57602090517f00000000000000000000000000000000000000000000000000000000000000008152f35b82853461025a578160031936011261025a57517f00000000000000000000000000000000000000000000000000000000000000006001600160a01b03168152602090f35b82853461025a57602036600319011261025a5760209181906001600160a01b03610656611b04565b1681526014845220549051908152f35b838584346105ac5760203660031901126105ac57819060ff610686611abf565b61068e611c42565b50168152600b602052208151916106a483611b70565b60ff8254169384845260018301549160208501928352600284015481860190815260038501549260608701938452850154936080870194855260c0600660058801549760a08a0198895201549701968752825197885251602088015251908601525160608501525160808401525160a08301525160c0820152f35b828585346102f35760203660031901126102f3577f136c0469109f45a2bf2f764309926b484a507d7645843502b6a6a68b2e5dc0eb916020913590610762611da1565b8160155551908152a180f35b838584346105ac5760203660031901126105ac579060ff918161078f611b04565b91610798611c42565b506001600160a01b039283168152600c602052208251906107b882611b70565b80549586835260018201549460208401958652600283015481850190815260056003850154936060870194855285015494608087019586520154968860c060a0880197898b168952019860a01c1688528251998a525160208a01525190880152516060870152516080860152511660a0840152511660c0820152f35b505091346102f357826003193601126102f35761084f611c7a565b60ff60115460081c161561095357338352600c60205280832080549283158080610947575b61093857856002600185019482865496818355550155156108ec575b5090817f17c1d890f3ffba4991a771a0b55802a1eff3159d0cce950fb68d1360530393d9926108ce575b815193845260208401523392a26001805580f35b6003546108e790829033906001600160a01b0316611dcd565b6108ba565b8480808087335af16108fc611c03565b5061089057606490602084519162461bcd60e51b83528201526011602482015270115512081c99599d5b990819985a5b1959607a1b6044820152fd5b508251632fc532ad60e11b8152fd5b50600183015415610874565b51630b4d698160e01b8152fd5b82853461025a578160031936011261025a576020906015549051908152f35b82853461025a578160031936011261025a5760209060ff6011541690519015158152f35b82853461025a578160031936011261025a576020906010549051908152f35b82853461025a578160031936011261025a576020906109e6600d54600e5490611b63565b9051908152f35b505091346102f357826003193601126102f357610a08611c7a565b60ff6011541615610aae57338352600c6020528083206002810154908115610a9f57600301928354610a915750610a4460649160165490611b1a565b04809255610a60823360018060a01b0360025460081c16611dcd565b519081527f9d9f91c7e63ecab055ab1ecb358d2e74e46aa0e4c65f9594aa73e56cfb5d0a4760203392a26001805580f35b8251630c8d9eab60e31b8152fd5b505051632fc532ad60e11b8152fd5b51639d98b04b60e01b8152fd5b82853461025a578160031936011261025a576020906016549051908152f35b828585346102f35760203660031901126102f357803591610af9611da1565b60148311610b0957505060125580f35b906020606492519162461bcd60e51b8352820152600e60248201526d084dedceae640e8dede40d0d2ced60931b6044820152fd5b84939150346102f35736600319011261025a57803560243591604435606435906084359260a43560c43591610b70611da1565b42871115610cd05786881115610c8e578315610c555785851115610c125791899187610c0c979695948360c07f3cb0b5e98cb9dd20183a31e5d2074cc10ce67c7c94540b76b44a32d526b9a7099d9e51610bc981611b70565b8481528d602082015288888201528960608201528a60808201528560a082015201525588600555836006558460075585600855600955600a555195869586611bdf565b0390a180f35b60649060208b519162461bcd60e51b8352820152601d60248201527f4861726420636170206d7573742065786365656420736f6674206361700000006044820152fd5b60649060208b519162461bcd60e51b83528201526013602482015272496e76616c696420746f6b656e20707269636560681b6044820152fd5b60649060208b519162461bcd60e51b8352820152601c60248201527b115b99081d1a5b59481b5d5cdd0818994818599d195c881cdd185c9d60221b6044820152fd5b60649060208b519162461bcd60e51b8352820152601960248201527853746172742074696d65206d7573742062652066757475726560381b6044820152fd5b848484346105ac57806003193601126105ac57505490600554906006546007546008549160095493600a5495815197885260208801528601526060850152608084015260a083015260c0820152f35b82853461025a578160031936011261025a57905490516001600160a01b039091168152602090f35b82853461025a578160031936011261025a5760207f62e78cea01bee320cd4e420270b5ea74000d11b0c9f74754ebdbfc544b05a25891610dc4611da1565b610dcc611c9d565b600160ff19600254161760025551338152a180f35b505091346102f35760203660031901126102f357610dfd611b04565b610e05611da1565b6001600160a01b0316918215610e555750601980546001600160a01b03191683179055519081527f5cc1ef5240bc2eaf2d8700ad762816942f83c3049659585c4e09280eeaeacea890602090a180f35b6020606492519162461bcd60e51b83528201526018602482015277125b9d985b1a59081d995cdd1a5b99c818dbdb9d1c9858dd60421b6044820152fd5b82346105ac57806003193601126105ac57610eab611da1565b80546001600160a01b03198116825581906001600160a01b0316600080516020611fd68339815191528280a380f35b82853461025a578160031936011261025a57602090600f549051908152f35b82853461025a578160031936011261025a5760195490516001600160a01b039091168152602090f35b82853461025a578160031936011261025a5760209060ff6002541690519015158152f35b5050823461025a578160031936011261025a57610f61611da1565b600554421061106457601160ff81541661105457610f84600d54600e5490611b63565b906008548210600014610fcd57600080516020611fb683398151915293945061010061ff00198254161781555b805460ff19166001179055600f5482519182526020820152a180f35b6019546001600160a01b039081169081610ffb575b5050600080516020611fb6833981519152939450610fb1565b600f5496606461100d6016548a611b1a565b04880397881161104257509561103a91600080516020611fb6833981519152969760025460081c16611dcd565b849386610fe2565b634e487b7160e01b8752839052602486fd5b81516391702baf60e01b81528490fd5b51639d98b04b60e01b81529050fd5b828585346102f357826003193601126102f357602092505442101590816110d2575b816110c4575b816110a9575b519015158152f35b90506110ba600d54600e5490611b63565b60075411906110a1565b60025460ff1615915061109b565b6005544211159150611095565b82853461025a578160031936011261025a5760209060ff60115460081c1690519015158152f35b838584346105ac5760203660031901126105ac5760ff91906001600160a01b0390829082611132611b04565b168152600c602052208054946001820154936002830154906005600385015493850154940154958151988952602089015287015260608601526080850152811660a084015260a01c1660c0820152f35b828585346102f357826003193601126102f35761119d611da1565b6002549060ff8216156111df575060ff1916600255513381527f5db9ee0a495bf2e6ff9c91a7834c1ba4fdd244a5e8aa4e537bd38aeae4b073aa90602090a180f35b8251638dfc202b60e01b8152fd5b828585346102f35760603660031901126102f35780356024359160443593611213611da1565b60198311611274578484101561123157505060165560175560185580f35b906020606492519162461bcd60e51b8352820152602060248201527f436c696666206d757374206265206c657373207468616e206475726174696f6e6044820152fd5b906020606492519162461bcd60e51b835282015260146024820152730a88e8a40e0cae4c6cadce840e8dede40d0d2ced60631b6044820152fd5b5050903461025a5760c036600319011261025a576112ca611abf565b602435604435916064356084359060ff60a435936112e6611da1565b1695600187101580611468575b1561143357805485106113f75760055486116113be579088886006898787966113b899987f31dd5fd34d799e031e9366d649c7f77cb5abf6d0e0f9a9fb7cd3699e081c7e929d9e9f519561134687611b70565b8487528d8d6020890190815289890191825260ff8a60608b01948d865260808c0196875260a08c0198895260c08c0199818b528152600b6020522099511660ff198a54161789555160018901555160028801555160038701555190850155516005840155519101555195869586611bdf565b0390a280f35b60649060208a519162461bcd60e51b835282015260136024820152725469657220656e642061667465722073616c6560681b6044820152fd5b60649060208a519162461bcd60e51b8352820152601660248201527554696572207374617274206265666f72652073616c6560501b6044820152fd5b60649060208a519162461bcd60e51b8352820152600f60248201526e125b9d985b1a59081d1a595c881251608a1b6044820152fd5b5060038711156112f3565b82853461025a578160031936011261025a576020906018549051908152f35b82853461025a578160031936011261025a5760035490516001600160a01b039091168152602090f35b5050823461025a57608036600319011261025a576114d7611abf565b60243591906001600160401b036044358181116117fa576114fb9036908801611ad4565b936064359460018060a01b03928387168097036117f65761151a611c7a565b611522611c9d565b600a54803a1190816117ec575b506117dc579061153f9186611cbb565b60095486106117cd5760ff841693848852602093600b8552828920670de0b6b3a764000090818a02918a8304148a1517156117ba576003015461158191611b43565b93600354168351916323b872dd60e01b878401523360248401523060448401528960648401526064835260a0830190838210908211176117a75784526115c79190611f4d565b338852600c845281882090858952600b855282892091600281016115ec868254611b63565b8c850154106117975760068401936005611607888754611b63565b91015410611797579261169592899261169d958d9e886116c99f80978d8d8215158061178d575b80611774575b611702575b505050505050906005918d61165360018401918254611b63565b9055611669611662878c611b63565b8254611b63565b9055019081549060ff8260a01c16156116d3575b50505061168d6116628388611b63565b905584611b63565b600f54611b63565b600f5585815193898552840152820152600080516020611ff683398151915260603392a4600e54611b63565b600e556001805580f35b60ff60a01b1990911660a09190911b60ff60a01b161790556010546116f790611d92565b6010558c808061167d565b60059796959a5090606461171b60139360125490611b1a565b049a870161172a8c8254611b63565b905586880180546001600160a01b0319168417905582845252828220805461175190611d92565b9055815260148d5220611765878254611b63565b905590918f89908e8d8d611639565b5050600c90828452528d8d600285852001541515611634565b503383141561162e565b84516374a5d1f560e01b81528c90fd5b634e487b7160e01b8b5260418c5260248bfd5b634e487b7160e01b8b5260118c5260248bfd5b5163cd1c886760e01b81528790fd5b825163317ed41360e21b81528a90fd5b905015158b61152f565b8880fd5b8580fd5b50509160606003193601126102f357611815611abf565b916024356001600160401b038111611abb576118349036908301611ad4565b6044356001600160a01b038116959290869003611ab757611853611c7a565b61185b611c9d565b600a54803a119081611aad575b50611a9d57906118789183611cbb565b6009543410611a8e5760ff811692838652602092600b8452818720670de0b6b3a764000090813402913483041434151715611a7b57600301546118ba91611b43565b92338852600c8552828820868952600b86528389209260028201906118e0878354611b63565b8186015410611a6d57600685019460056118fb898854611b63565b91015410611a6d57928992611970959261169595888e80978d8d82151580611a63575b80611a4a575b6119d9575b5050505050509060059161193e348354611b63565b825561194d611662878c611b63565b9055019081549060ff8260a01c16156119aa5750505061168d6116628388611b63565b600f5585815193348552840152820152600080516020611ff683398151915260603392a46119a034600d54611b63565b600d556001805580f35b60ff60a01b1990911660a09190911b60ff60a01b161790556010546119ce90611d92565b60105538808061167d565b60059796959a509060646119f260139360125490611b1a565b049a8701611a018c8254611b63565b905586880180546001600160a01b03191684179055828452528282208054611a2890611d92565b9055815260148d5220611a3c878254611b63565b90559091888e8e8d8d611929565b5050600c90828452528d8d600285852001541515611924565b503383141561191e565b85516374a5d1f560e01b8152fd5b634e487b7160e01b895260118352602489fd5b50905163cd1c886760e01b8152fd5b845163317ed41360e21b81528490fd5b9050151538611868565b8680fd5b8480fd5b6004359060ff82168203611acf57565b600080fd5b9181601f84011215611acf578235916001600160401b038311611acf576020808501948460051b010111611acf57565b600435906001600160a01b0382168203611acf57565b81810292918115918404141715611b2d57565b634e487b7160e01b600052601160045260246000fd5b8115611b4d570490565b634e487b7160e01b600052601260045260246000fd5b91908201809211611b2d57565b60e081019081106001600160401b03821117611b8b57604052565b634e487b7160e01b600052604160045260246000fd5b606081019081106001600160401b03821117611b8b57604052565b601f909101601f19168101906001600160401b03821190821017611b8b57604052565b9192608093969594919660a084019784526020840152604083015260608201520152565b3d15611c3d573d906001600160401b038211611b8b5760405191611c31601f8201601f191660200184611bbc565b82523d6000602084013e565b606090565b60405190611c4f82611b70565b8160c06000918281528260208201528260408201528260608201528260808201528260a08201520152565b600260015414611c8b576002600155565b604051633ee5aeb560e01b8152600490fd5b60ff60025416611ca957565b60405163d93c066560e01b8152600490fd5b9190600492835442108015611d87575b611d4d5760ff8116600181108015611d7d575b611d6c57600052600b602052604060002060018101544210908115611d5e575b50611d4d5790611d0f929133611e1e565b15611d3e57611d23600d54600e5490611b63565b6007541115611d2f5750565b604051634bc461a160e11b8152fd5b604051630b094f2760e31b8152fd5b60405163b7b2409760e01b81528490fd5b600291500154421138611cfe565b60405163e142361760e01b81528590fd5b5060038111611cde565b506005544211611ccb565b6000198114611b2d5760010190565b6000546001600160a01b03163303611db557565b60405163118cdaa760e01b8152336004820152602490fd5b60405163a9059cbb60e01b60208201526001600160a01b03909216602483015260448083019390935291815260808101916001600160401b03831182841017611b8b57611e1c92604052611f4d565b565b919293601554928315611f425760408051606092831b6001600160601b031916602080830191825260f89690961b6001600160f81b03191660348301526015825281830197929491926001600160401b0391828a11858b1017611b8b5789875284519020918a11611b8b576005998060051b90611e9d8983018c611bbc565b8a526060850190820191368311611acf578890915b838310611f325750505050956000965b8851881015611f2657878a1b840185015160019190808211611f035787519089820192835288820152878152611ef781611ba1565b519020975b0196611ec2565b9087519089820192835288820152878152611f1d81611ba1565b51902097611efc565b14975095505050505050565b8235815291810191899101611eb2565b509350505050600190565b906000602091828151910182855af115611fa9576000513d611fa057506001600160a01b0381163b155b611f7e5750565b604051635274afe760e01b81526001600160a01b039091166004820152602490fd5b60011415611f77565b6040513d6000823e3d90fdfe17b1a568460bc127a7f9a9677d502ac593fa4af690a1c3aed38bda591e196e2e8be0079c531659141344cd1fd0a4f28419497f9722a3daafe3b4186f6b6457e0d54a20c27ea2b1ad4b31272ade2f34074de366f09b185a3427cd88e8d96a2877a2646970667358221220cd01501a403408281abb62c3de1c6d0ff428562b139e165320d1dab80c1679d864736f6c63430008160033",
  "linkReferences": {},
  "deployedLinkReferences": {}
}