{
  "_format": "hh-sol-artifact-1",
  "contractName": "VestingManagerV2",
  "sourceName": "contracts/ido/VestingManagerV2.sol",
  "abi": [
    {
      "inputs": [
        {
          "internalType": "address",
          "name": "_token",
          "type": "address"
        }
      ],
      "stateMutability": "nonpayable",
      "type": "constructor"
    },
    {
      "inputs": [],
      "name": "AlreadyRevoked",
      "type": "error"
    },
    {
      "inputs": [],
      "name": "InvalidSchedule",
      "type": "error"
    },
    {
      "inputs": [],
      "name": "NoVestingSchedule",
      "type": "error"
    },
    {
      "inputs": [],
      "name": "NothingToClaim",
      "type": "error"
    },
    {
      "inputs": [
        {
          "internalType": "address",
          "name": "owner",
          "type": "address"
        }
      ],
      "name": "OwnableInvalidOwner",
      "type": "error"
    },
    {
      "inputs": [
        {
          "internalType": "address",
          "name": "account",
          "type": "address"
        }
      ],
      "name": "OwnableUnauthorizedAccount",
      "type": "error"
    },
    {
      "inputs": [],
      "name": "ReentrancyGuardReentrantCall",
      "type": "error"
    },
    {
      "inputs": [
        {
          "internalType": "address",
          "name": "token",
          "type": "address"
        }
      ],
      "name": "SafeERC20FailedOperation",
      "type": "error"
    },
    {
      "inputs": [],
      "name": "Unauthorized",
      "type": "error"
    },
    {
      "anonymous": false,
      "inputs": [
        {
          "indexed": false,
          "internalType": "address",
          "name": "idoContract",
          "type": "address"
        }
      ],
      "name": "IDOContractSet",
      "type": "event"
    },
    {
      "anonymous": false,
      "inputs": [
        {
          "indexed": true,
          "internalType": "address",
          "name": "previousOwner",
          "type": "address"
        },
        {
          "indexed": true,
          "internalType": "address",
          "name": "newOwner",
          "type": "address"
        }
      ],
      "name": "OwnershipTransferred",
      "type": "event"
    },
    {
      "anonymous": false,
      "inputs": [
        {
          "indexed": true,
          "internalType": "address",
          "name": "beneficiary",
          "type": "address"
        },
        {
          "indexed": false,
          "internalType": "uint256",
          "name": "amount",
          "type": "uint256"
        }
      ],
      "name": "TokensClaimed",
      "type": "event"
    },
    {
      "anonymous": false,
      "inputs": [
        {
          "indexed": true,
          "internalType": "address",
          "name": "beneficiary",
          "type": "address"
        },
        {
          "indexed": false,
          "internalType": "uint256",
          "name": "unvested",
          "type": "uint256"
        }
      ],
      "name": "VestingRevoked",
      "type": "event"
    },
    {
      "anonymous": false,
      "inputs": [
        {
          "indexed": true,
          "internalType": "address",
          "name": "beneficiary",
          "type": "address"
        },
        {
          "indexed": false,
          "internalType": "uint256",
          "name": "amount",
          "type": "uint256"
        },
        {
          "indexed": false,
          "internalType": "uint256",
          "name": "startTime",
          "type": "uint256"
        },
        {
          "indexed": false,
          "internalType": "uint256",
          "name": "cliff",
          "type": "uint256"
        },
        {
          "indexed": false,
          "internalType": "uint256",
          "name": "duration",
          "type": "uint256"
        }
      ],
      "name": "VestingScheduleCreated",
      "type": "event"
    },
    {
      "inputs": [],
      "name": "claim",
      "outputs": [],
      "stateMutability": "nonpayable",
      "type": "function"
    },
    {
      "inputs": [
        {
          "internalType": "address",
          "name": "_beneficiary",
          "type": "address"
        }
      ],
      "name": "claimFor",
      "outputs": [],
      "stateMutability": "nonpayable",
      "type": "function"
    },
    {
      "inputs": [
        {
          "internalType": "address",
          "name": "_beneficiary",
          "type": "address"
        },
        {
          "internalType": "uint256",
          "name": "_amount",
          "type": "uint256"
        },
        {
          "internalType": "uint256",
          "name": "_startTime",
          "type": "uint256"
        },
        {
          "internalType": "uint256",
          "name": "_cliff",
          "type": "uint256"
        },
        {
          "internalType": "uint256",
          "name": "_duration",
          "type": "uint256"
        }
      ],
      "name": "createVestingSchedule",
      "outputs": [],
      "stateMutability": "nonpayable",
      "type": "function"
    },
    {
      "inputs": [
        {
          "internalType": "address[]",
          "name": "_beneficiaries",
          "type": "address[]"
        },
        {
          "internalType": "uint256[]",
          "name": "_amounts",
          "type": "uint256[]"
        },
        {
          "internalType": "uint256",
          "name": "_startTime",
          "type": "uint256"
        },
        {
          "internalType": "uint256",
          "name": "_cliff",
          "type": "uint256"
        },
        {
          "internalType": "uint256",
          "name": "_duration",
          "type": "uint256"
        }
      ],
      "name": "createVestingScheduleBatch",
      "outputs": [],
      "stateMutability": "nonpayable",
      "type": "function"
    },
    {
      "inputs": [],
      "name": "emergencyWithdraw",
      "outputs": [],
      "stateMutability": "nonpayable",
      "type": "function"
    },
    {
      "inputs": [
        {
          "internalType": "address",
          "name": "_beneficiary",
          "type": "address"
        }
      ],
      "name": "getClaimableAmount",
      "outputs": [
        {
          "internalType": "uint256",
          "name": "",
          "type": "uint256"
        }
      ],
      "stateMutability": "view",
      "type": "function"
    },
    {
      "inputs": [
        {
          "internalType": "address",
          "name": "_beneficiary",
          "type": "address"
        }
      ],
      "name": "getNextUnlockTime",
      "outputs": [
        {
          "internalType": "uint256",
          "name": "",
          "type": "uint256"
        }
      ],
      "stateMutability": "view",
      "type": "function"
    },
    {
      "inputs": [
        {
          "internalType": "address",
          "name": "_beneficiary",
          "type": "address"
        }
      ],
      "name": "getTimeUntilFullyVested",
      "outputs": [
        {
          "internalType": "uint256",
          "name": "",
          "type": "uint256"
        }
      ],
      "stateMutability": "view",
      "type": "function"
    },
    {
      "inputs": [
        {
          "internalType": "address",
          "name": "_beneficiary",
          "type": "address"
        }
      ],
      "name": "getVestedAmount",
      "outputs": [
        {
          "internalType": "uint256",
          "name": "",
          "type": "uint256"
        }
      ],
      "stateMutability": "view",
      "type": "function"
    },
    {
      "inputs": [
        {
          "internalType": "address",
          "name": "_beneficiary",
          "type": "address"
        }
      ],
      "name": "getVestingInfo",
      "outputs": [
        {
          "internalType": "uint256",
          "name": "total",
          "type": "uint256"
        },
        {
          "internalType": "uint256",
          "name": "vested",
          "type": "uint256"
        },
        {
          "internalType": "uint256",
          "name": "claimed",
          "type": "uint256"
        },
        {
          "internalType": "uint256",
          "name": "claimable",
          "type": "uint256"
        },
        {
          "internalType": "uint256",
          "name": "remaining",
          "type": "uint256"
        },
        {
          "internalType": "bool",
          "name": "revoked",
          "type": "bool"
        }
      ],
      "stateMutability": "view",
      "type": "function"
    },
    {
      "inputs": [
        {
          "internalType": "address",
          "name": "_beneficiary",
          "type": "address"
        }
      ],
      "name": "getVestingSchedule",
      "outputs": [
        {
          "components": [
            {
              "internalType": "uint256",
              "name": "totalAmount",
              "type": "uint256"
            },
            {
              "internalType": "uint256",
              "name": "claimedAmount",
              "type": "uint256"
            },
            {
              "internalType": "uint256",
              "name": "startTime",
              "type": "uint256"
            },
            {
              "internalType": "uint256",
              "name": "cliff",
              "type": "uint256"
            },
            {
              "internalType": "uint256",
              "name": "duration",
              "type": "uint256"
            },
            {
              "internalType": "bool",
              "name": "revoked",
              "type": "bool"
            }
          ],
          "internalType": "struct VestingManagerV2.VestingSchedule",
          "name": "",
          "type": "tuple"
        }
      ],
      "stateMutability": "view",
      "type": "function"
    },
    {
      "inputs": [],
      "name": "idoContract",
      "outputs": [
        {
          "internalType": "address",
          "name": "",
          "type": "address"
        }
      ],
      "stateMutability": "view",
      "type": "function"
    },
    {
      "inputs": [],
      "name": "owner",
      "outputs": [
        {
          "internalType": "address",
          "name": "",
          "type": "address"
        }
      ],
      "stateMutability": "view",
      "type": "function"
    },
    {
      "inputs": [],
      "name": "renounceOwnership",
      "outputs": [],
      "stateMutability": "nonpayable",
      "type": "function"
    },
    {
      "inputs": [
        {
          "internalType": "address",
          "name": "_beneficiary",
          "type": "address"
        }
      ],
      "name": "revokeVesting",
      "outputs": [],
      "stateMutability": "nonpayable",
      "type": "function"
    },
    {
      "inputs": [
        {
          "internalType": "address",
          "name": "_idoContract",
          "type": "address"
        }
      ],
      "name": "setIDOContract",
      "outputs": [],
      "stateMutability": "nonpayable",
      "type": "function"
    },
    {
      "inputs": [],
      "name": "token",
      "outputs": [
        {
          "internalType": "contract IERC20",
          "name": "",
          "type": "address"
        }
      ],
      "stateMutability": "view",
      "type": "function"
    },
    {
      "inputs": [],
      "name": "totalClaimed",
      "outputs": [
        {
          "internalType": "uint256",
          "name": "",
          "type": "uint256"
        }
      ],
      "stateMutability": "view",
      "type": "function"
    },
    {
      "inputs": [],
      "name": "totalVested",
      "outputs": [
        {
          "internalType": "uint256",
          "name": "",
          "type": "uint256"
        }
      ],
      "stateMutability": "view",
      "type": "function"
    },
    {
      "inputs": [
        {
          "internalType": "address",
          "name": "newOwner",
          "type": "address"
        }
      ],
      "name": "transferOwnership",
      "outputs": [],
      "stateMutability": "nonpayable",
      "type": "function"
    },
    {
      "inputs": [
        {
          "internalType": "address",
          "name": "",
          "type": "address"
        }
      ],
      "name": "vestingSchedules",
      "outputs": [
        {
          "internalType": "uint256",
          "name": "totalAmount",
          "type": "uint256"
        },
        {
          "internalType": "uint256",
          "name": "claimedAmount",
          "type": "uint256"
        },
        {
          "internalType": "uint256",
          "name": "startTime",
          "type": "uint256"
        },
        {
          "internalType": "uint256",
          "name": "cliff",
          "type": "uint256"
        },
        {
          "internalType": "uint256",
          "name": "duration",
          "type": "uint256"
        },
        {
          "internalType": "bool",
          "name": "revoked",
          "type": "bool"
        }
      ],
      "stateMutability": "view",
      "type": "function"
    }
  ],
  "bytecode": "0x60803461011657601f61134338819003918201601f19168301916001600160401b0383118484101761011b5780849260209460405283398101031261011657516001600160a01b03808216918290036101165733156100fd576000549060018060a01b0319913383821617600055604051913391167f8be0079c531659141344cd1fd0a4f28419497f9722a3daafe3b4186f6b6457e0600080a36001805582156100bb5750600254161760025560405161121190816101328239f35b62461bcd60e51b815260206004820152601560248201527f496e76616c696420746f6b656e206164647265737300000000000000000000006044820152606490fd5b604051631e4fbdf760e01b815260006004820152602490fd5b600080fd5b634e487b7160e01b600052604160045260246000fdfe608060408181526004908136101561001657600080fd5b600092833560e01c908163116f71ac14610c8a57508063199cbc5414610c6c5780631bf0b08b14610a9f5780632839409514610a795780633b0da260146109825780634e71d92d146108b957806350d95d31146106b7578063715018a61461066f5780638da5cb5b146106475780639f829063146105ae578063c951dc0a14610588578063d54ad2a114610569578063d5a73fdd14610543578063db2e21bc14610461578063ddeae03314610383578063e12f3a6114610356578063f2fde38b146102e1578063fb897ce41461024a578063fc0c546a1461021d578063fdb20ccb146101b95763ff2c682c1461010b57600080fd5b346101b55760203660031901126101b557610124610caf565b61012c610feb565b6001600160a01b031691821561017c5750600680546001600160a01b03191683179055519081527fbc0a6b1ab2e3de350671c9f3c91c8a51202e82dd34770413ff41446a2489f69190602090a180f35b6020606492519162461bcd60e51b83528201526014602482015273125b9d985b1a5908125113c818dbdb9d1c9858dd60621b6044820152fd5b8280fd5b50823461021a57602036600319011261021a576102169082906001600160a01b036101e2610caf565b16815260036020522091825492600181015494600282015460ff600560038501549385015494015416935196879687610cfa565b0390f35b80fd5b83823461024657816003193601126102465760025490516001600160a01b039091168152602090f35b5080fd5b838234610246576020366003190112610246576001600160a01b0361026d610caf565b1682526003602052610216610283828420610e28565b9182519261029081611017565b9460208201518087116000146102db576102aa8188610ee4565b915b878711156102d2575060a06102c18888610ee4565b935b01511515935196879687610cfa565b60a090936102c3565b816102ac565b5090346101b55760203660031901126101b5576102fc610caf565b90610305610feb565b6001600160a01b0391821692831561034057505082546001600160a01b03198116831784551660008051602061119c8339815191528380a380f35b51631e4fbdf760e01b8152908101849052602490fd5b8382346102465760203660031901126102465760209061037c610377610caf565b610f98565b9051908152f35b5090346101b55760203660031901126101b55761039e610caf565b916103a7611158565b6001600160a01b038381168086526003602052828620805491959291156104515760ff600582015416610441576103dd83610f98565b94851561043357508460008051602061117c8339815191529593602095936001610427940161040d848254610de9565b905561041b83600554610de9565b600555600254166110b7565b51908152a26001805580f35b84516312d37ee560e31b8152fd5b5050505163905e710760e01b8152fd5b505050516366ef36c960e01b8152fd5b5090346101b557826003193601126101b55761047b610feb565b60025482516370a0823160e01b815230838201526001600160a01b039391841691602082602481865afa9384156105395786946104d3575b505050816104bf578380f35b6104cc92845416906110b7565b3880808380f35b90919293506020913d602011610531575b601f8301601f19168401916001600160401b0383118584101761051e57505260209082018290031261051a5751903880806104b3565b8380fd5b634e487b7160e01b885260419052602487fd5b3d92506104e4565b81513d88823e3d90fd5b8382346102465760203660031901126102465760209061037c610564610caf565b610f68565b8382346102465781600319360112610246576020906005549051908152f35b8382346102465760203660031901126102465760209061037c6105a9610caf565b610f17565b8382346102465760203660031901126102465760a061060f8260c0946105d2610caf565b818584516105df81610db8565b82815282602082015282868201528260608201528260808201520152600180861b03168152600360205220610e28565b8251928151845260208201516020850152808201519084015260608101516060840152608081015160808401520151151560a0820152f35b838234610246578160031936011261024657905490516001600160a01b039091168152602090f35b833461021a578060031936011261021a57610688610feb565b80546001600160a01b03198116825581906001600160a01b031660008051602061119c8339815191528280a380f35b50346101b55760a09060a060031936011261051a576001600160401b039183358381116108b5576106eb9036908601610cca565b9290936024359081116108b1576107059036908701610cca565b959060443592606435906084359260018060a01b0397888c5416331480156108a4575b61073190610d26565b8a810361086f57610743848611610d6f565b8b805b828110610751575080f35b61075c81848e610ef1565b358b81168091036101b557868a8f6001958e8c8b8f948961077d918e610ef1565b359488158015610867575b6108595788855260039260209380855283872054610849576000805160206111bc833981519152998989866108209a8f9860059a8791519c8d956107cb87610db8565b865260808287019685885286810198895260608101998a5201998a528d019a838c528352522098518955518f8901555160028801555190860155519084015551151591019060ff801983541691151516179055565b61082b818d54610de9565b8c5561083d8b8b8b5194859485610e0c565b0390a25b018c90610746565b5050505050505050505050610841565b505050505050505050610841565b508515610788565b825162461bcd60e51b8152602081880152600f60248201526e098cadccee8d040dad2e6dac2e8c6d608b1b6044820152606490fd5b5060065489163314610728565b8680fd5b8580fd5b50346101b557826003193601126101b5576108d2611158565b33835260036020528083208054156109745760ff600582015416610966576108f933610f98565b928315610958575060010161090f838254610de9565b905561091d82600554610de9565b60055560025461093990839033906001600160a01b03166110b7565b5190815260008051602061117c83398151915260203392a26001805580f35b82516312d37ee560e31b8152fd5b505163905e710760e01b8152fd5b50516366ef36c960e01b8152fd5b5090346101b55760203660031901126101b55761099d610caf565b906109a6610feb565b6001600160a01b0391821680855260036020528385208054919490918015610a6957600583019283549360ff8516610a595760016109f56109ee6109e985610e28565b611017565b8095610ee4565b9560ff19161790555581610a07578580f35b610a4b827f57c76f5e278bfbd4eeb5207d287aa5a1a9e1113c65f7eefa540e379a2774d13b9585610a3b8360209854610ee4565b90556002548954821691166110b7565b51908152a238808080808580f35b835163905e710760e01b81528690fd5b81516366ef36c960e01b81528490fd5b8382346102465760203660031901126102465760209061037c610a9a610caf565b610e73565b509190346102465760a036600319011261024657610abb610caf565b602435604435916064356084359160018060a01b03908188541633148015610c5f575b610ae790610d26565b16948515610c26578315610bee57610b00828411610d6f565b858752600360205287872054610bb9579087610bb39392610b9c6000805160206111bc83398151915298999a51610b3681610db8565b87815260058b8d602084018181528785018d815260608601918a83528960808801948d865260a0890196818852815260036020522096518755516001870155516002860155516003850155518584015551151591019060ff801983541691151516179055565b610ba7868254610de9565b90555194859485610e0c565b0390a280f35b606490602089519162461bcd60e51b8352820152600f60248201526e5363686564756c652065786973747360881b6044820152fd5b606490602089519162461bcd60e51b835282015260126024820152710416d6f756e74206d757374206265203e20360741b6044820152fd5b606490602089519162461bcd60e51b83528201526013602482015272496e76616c69642062656e656669636961727960681b6044820152fd5b5060065482163314610ade565b5090346101b557826003193601126101b55760209250549051908152f35b8490346102465781600319360112610246576006546001600160a01b03168152602090f35b600435906001600160a01b0382168203610cc557565b600080fd5b9181601f84011215610cc5578235916001600160401b038311610cc5576020808501948460051b010111610cc557565b94919260a0949197969360c0870198875260208701526040860152606085015260808401521515910152565b15610d2d57565b60405162461bcd60e51b815260206004820152601a60248201527913db9b1e481bdddb995c881bdc88125113c818dbdb9d1c9858dd60321b6044820152606490fd5b15610d7657565b60405162461bcd60e51b815260206004820152601a602482015279223ab930ba34b7b71036bab9ba1032bc31b2b2b21031b634b33360311b6044820152606490fd5b60c081019081106001600160401b03821117610dd357604052565b634e487b7160e01b600052604160045260246000fd5b91908201809211610df657565b634e487b7160e01b600052601160045260246000fd5b9094939260609260808301968352602083015260408201520152565b90604051610e3581610db8565b60a060ff6005839580548552600181015460208601526002810154604086015260038101546060860152600481015460808601520154161515910152565b6001600160a01b03166000908152600360205260409020610e9390610e28565b805115610ede576040810190610eaf8251606083015190610de9565b804210610ed857506080610ec7925191015190610de9565b421015610ed357600090565b600090565b91505090565b50600090565b91908203918211610df657565b9190811015610f015760051b0190565b634e487b7160e01b600052603260045260246000fd5b6001600160a01b03166000908152600360205260409020610f3790610e28565b805115610ede578060806040610f5293015191015190610de9565b80421015610ede57610f65904290610ee4565b90565b6001600160a01b03166000908152600360205260409020610f8890610e28565b805115610ede57610f6590611017565b6001600160a01b03166000908152600360205260409020610fb890610e28565b8051158015610fde575b610ede57806020610fd5610f6593611017565b91015190610ee4565b5060a08101511515610fc2565b6000546001600160a01b03163303610fff57565b60405163118cdaa760e01b8152336004820152602490fd5b604081018051908142106110af576110356060840192835190610de9565b908142106110a657519161104f6080850193845190610de9565b42101561109f5761106361106d9242610ee4565b9251905190610ee4565b9151818102918183041490151715610df6578115611089570490565b634e487b7160e01b600052601260045260246000fd5b5050505190565b50505050600090565b505050600090565b60405163a9059cbb60e01b602082019081526001600160a01b039384166024830152604480830195909552938152909260808201906001600160401b03821183831017610dd357602092600092604052519082865af11561114c576000513d61114357508082163b155b611129575050565b604051635274afe760e01b81529116600482015260249150fd5b60011415611121565b6040513d6000823e3d90fd5b600260015414611169576002600155565b604051633ee5aeb560e01b8152600490fdfe896e034966eaaf1adc54acc0f257056febbd300c9e47182cf761982cf1f5e4308be0079c531659141344cd1fd0a4f28419497f9722a3daafe3b4186f6b6457e047d46f58c7d60d60571092cff5715b8c8c5bc1347db2bb9890e639bf3680ba7ba26469706673582212203c4e07637ce32876245c701ce0bc086d7eb43c634d1f5ea6fdbd1794c4f1ec6964736f6c63430008160033",
  "linkReferences": {},
  "deployedLinkReferences": {}
}